:100000000C94E4020C942B030C942B030C942B0300
:100010000C942B030C942B030C942B030C942B03A8
:100020000C942B030C942B030C9440290C94122A4F
:100030000C9413200C942B030C942B030C942B0383
:100040000C942B030C944F0F0C942B030C942B0348
:100050000C94730F0C9460200C942B030C942B03C2
:100060000C942B030C942B030C942B030C942B0358
:100070000C942B030C942B030C942B030C942B0348
:100080000C942B030C942B030C942B030C942B0338
:100090000C942B030C942B030C942B030C942B0328
:1000A0000C942B030C942B030C942B03E40DE70D01
:1000B000EF0DF40DF90DFE0D030E080E0D0E120ED0
:1000C000170E1C0E1E0E210E240E270E2A0E2D0EAC
:1000D0002F0E340E3E153E1570157015BD15DB152F
:1000E000331733171D16B216C316C316231733174B
:1000F00033172C17D317D317E517E517DC17E517B8
:10010000E517E517D317D317E117E517E517E1173B
:100110007F2AA62A9E2BA62A9E2BF22A152B9E2BDF
:100120006C2B7B2B29001E001F00200021002200C9
:10013000230024002500260027002D002E0031007A
:100140002B0014001A000800150017001C001800EE
:100150000C00120013002F0030004C003900040086
:100160001600070009000A000B000D000E000F002A
:100170003300340000002800E10000001D001B00D7
:100180000600190005001100100036003700380085
:1001900001585200E000E300E200000000002C41A2
:1001A0000000E50050002A00E700E40051004F0085
:1001B00035003A003B003C003D003E003F0040005F
:1001C00041004200430044004500010001000100DD
:1001D0000100520001000100B200010049000100CD
:1001E0004600470048000100010001005000510096
:1001F0004F000100010001000100010001000100A9
:100200000100010001000100010065000100010082
:100210000100AA00A900A8000100010001004B0094
:100220000100010001000000000001000000C25CAC
:100230004A000100010001004E004D0032190A0081
:10024000047F3F1F643214643214783C1E1E140A6B
:10025000052223252628292A2C2D2F303233353606
:10026000383A3B3D3E4042434547494A4C4E505147
:10027000535557595A5C5E6062646668696B6D6F6E
:1002800071737577797B7D7F81838587898A8C8E71
:1002900090929496989A9C9E9FA1A3A5A7A8AAAC79
:1002A000AEAFB1B3B4B6B8B9BBBCBEBFC1C2C3C5B3
:1002B000C6C7C9CACBCCCDCED0D1D2D2D3D4D5D655
:1002C000D7D7D8D9D9DADADBDBDBDCDCDCDCDCDD88
:1002D000DDDDDDDCDCDCDCDCDBDBDBDADAD9D9D86C
:1002E000D7D7D6D5D4D3D2D2D1D0CECDCCCBCAC904
:1002F000C7C6C5C3C2C1BFBEBCBBB9B8B6B4B3B133
:10030000AFAEACAAA8A7A5A3A19F9E9C9A989694CD
:1003100092908E8C8A89878583817F7D7B797775A2
:1003200073716F6D6B6968666462605E5C5A595781
:10033000555351504E4C4A4947454342403E3D3B40
:100340003A3836353332302F2D2C2A2928262523CA
:1003500022FFAA7F554000010101010101010101B5
:100360000202020202020202020303030303030366
:100370000304040404040404050505050506060633
:100380000606070707070708080808090909090AF0
:100390000A0A0B0B0B0C0C0C0D0D0D0E0E0E0F0F95
:1003A0000F10101111111212131314141515161623
:1003B0001717181819191A1A1B1B1C1D1D1E1E1F92
:1003C0002020212222232424252626272829292AE1
:1003D0002B2C2D2D2E2F3031323233343536373809
:1003E000393A3B3C3D3E3F40414243444546474805
:1003F000494A4C4D4E4F50515354555658595A5BDB
:100400005D5E5F616264656668696B6C6D6F70727A
:10041000737577787A7B7D7E8082838587888A8CE6
:100420008E8F91939596989A9C9EA0A2A3A5A7A91A
:10043000ABADAFB1B3B5B7BABCBEC0C2C4C6C9CB11
:10044000CDCFD1D4D6D8DBDDDFE2E4E7E9EBEEF0C7
:10045000F3F5F8FAFDFF0403300000000E03580026
:100460004400360030007600320000000C035800D3
:100470004900550044004900000004030904090232
:100480003B00020100A0FA09040000010301010081
:100490000921110100012240000705810308000A1B
:1004A00009040100010300000009211101000122DB
:1004B000BC000705820320000A12011001000000A1
:1004C00008EDFE606001000102030105010902A1BF
:1004D0000185020901A10005091901290515002559
:1004E00001950575018102950175038101050109D9
:1004F0003009311581257F95027508810609381567
:1005000081257F950175088106050C0A3802158141
:10051000257F950175088106C0C005010980A101EC
:10052000850319012AB700150126B700950175103A
:100530008100C0050C0901A101850419012AA0024E
:10054000150126A002950175108100C0050109065C
:10055000A1018505050719E029E715002501950882
:10056000750181020507190029EF1500250195F095
:10057000750181020508190129059505750191028A
:10058000950175039101C005010906A1010507192F
:10059000E029E7150025019508750181029501758F
:1005A0000881010507190029FF150026FF0095069F
:1005B0007508810005081901290595057501910245
:1005C000950175039101C00011241FBECFEFDAE041
:1005D000DEBFCDBF04B603FE27C080911503909106
:1005E0001603A0911703B09118038730904BA740D2
:1005F000B04BD1F41092150310921603109217030A
:100600001092180314BE84B7877F84BF0FB6F89486
:10061000A8958091600088618093600010926000CE
:100620000FBEE0E0F8E3099511E0A0E0B1E0E0E8FA
:10063000FAE502C005900D92AC3CB107D9F723E072
:10064000ACECB1E001C01D92A531B207E1F70E9408
:100650006F260C943E2D0C94000081FF02C0229A5C
:1006600001C022982A980C94910381E0089581E0BA
:1006700008950C94370308950C943B031F93CF9374
:10068000DF9300D000D01F92CDB7DEB749835A83E5
:100690006B8330910E0289819A81311114C06623D7
:1006A00059F0222349F00E940C1D182F682F8981D0
:1006B0009A810E94B51C03C00E94E01C182F69811A
:1006C0007A81812F04C00E940C1D69817A810F906C
:1006D0000F900F900F900F90DF91CF911F910C947E
:1006E000FC03FC01262F408151816281738184814A
:1006F0000C943E03CF93DF93EC0160E00E94710302
:10070000BE01DF91CF910C943C030E943E1E8111EB
:1007100002C00E94F11E0E9416100C941B060C943D
:100720001706089581E008950C949203CF93C82F83
:100730000E942D038C2F0E949403CF910895089559
:100740000E94C1170E949F032FEF84E39CE0215079
:1007500080409040E1F700C000000C9486200F9389
:100760001F93CF93DF93EC0161E00E9471038C0132
:10077000BE010E9439038823A9F1BE01C8010E946D
:10078000180F882379F1BE01C8010E94C510882383
:1007900049F1BE01C8010E940611882319F1BE016A
:1007A000C8010E9431128823E9F0BE01C8010E94ED
:1007B000CD0D8823B9F08A81882369F001158CE575
:1007C000180731F00E3D1C4531F40E94F11E0AC09D
:1007D0000E94A00307C0CE01DF91CF911F910F911E
:1007E0000C94350380E0DF91CF911F910F91089514
:1007F00080E090E00895089526E4829FC0011124CE
:10080000FC012EE0729FE00DF11D1124E60FF11D99
:10081000EE0FFF1FEC5DFE4F859194910895880FB8
:10082000991FFC01E45CFD4F859194910895CF934D
:10083000DF930E94FC030E942F05EC018115904577
:1008400008F041C0C11580E4D80708F0D1C0C83E07
:10085000D10510F5C03ED10508F0FDC0C83AD1055C
:1008600078F4C53AD10508F0A2C0C130D10509F429
:10087000F2C008F4EEC0C430D10508F0ECC0E9C005
:10088000CF3BD10508F49BC0C03CD10508F4E1C0C2
:10089000CE01805C91099EC0C11590E2D90758F441
:1008A000C11521E0D20708F0D6C0C03FD10508F439
:1008B000D0C0D065D0C0C11580E3D80708F08EC085
:1008C000CE019F7087C0C11595E5D90708F043C0D8
:1008D000C11524E5D20708F0A2C0C11582E5D807EA
:1008E00008F5C11591E5D90708F085C0CE0174E07F
:1008F000969587957A95E1F783709C2F937021E008
:1009000030E002C0220F331F9A95E2F73C68382B83
:10091000CF70C695C69580E2C89FE0011124C22B16
:10092000D32B99C09E01237033278C2F86958695F3
:10093000C115D34508F064C0C1E0D0E002C0CC0FBF
:10094000DD1F2A95E2F720E2829FC0011124C82B07
:10095000D92BDC6880C0C11529E5D207A0F4C115E8
:1009600088E5D80708F060C0C11596E5D90708F0FA
:1009700070C08C2F0E94C3058F71C82FD0E0DC2F70
:10098000CC27D06268C0C1152AE5D20708F451C04F
:10099000CE0190568115904208F05BC08D2F8F716B
:1009A0000E94C305DD27D0628F71D82B54C0C55A71
:1009B000D0E0C75ADE4FC881D0E0D0644CC0C85ADE
:1009C000D0E0CC0FDD1FC55DDE4F0990D881C02D72
:1009D000D46441C00E940F04EC013DC0CE019927B0
:1009E000D3FF03C0EC01D86C36C0EC01D06C33C02F
:1009F000DF70D06A30C0DC2FCC27C16FD06A2BC02B
:100A0000C1E0D0E002C0CC0FDD1F2A95E2F720E262
:100A1000829FC0011124C82BD92BDA681CC0DC2F9F
:100A2000CC27C46FD06A17C0DC2FCC27C06FD06A28
:100A300012C08C2F8F700E94C30594E0D695C79585
:100A40009A95E1F7CF70D0E0DC2FCC27D069C82B86
:100A500002C0C0E0D0E0CE01DF91CF91089582388E
:100A6000910569F1B0F48133910509F46DC048F442
:100A70008932910509F463C08A32910509F469C08D
:100A800008958533910509F455C089339105B9F06E
:100A90000895833E910569F138F4803E9105B1F0E7
:100AA000823E910509F10895863E9105A9F1873EA0
:100AB0009105B9F1843E910509F064C023C02091ED
:100AC000060320FD4FC021FD4DC00895809106030F
:100AD00080FD44C08091070380FF44C080910603DD
:100AE00084FD42C083EE4DC08091060382FF38C072
:100AF000F5CF8091060382FD33C08091070380FD0E
:100B000031C0ECCF8091070381FF32C08091060392
:100B100084FD2AC087EE35C08091060383FF26C07E
:100B2000F5CF8091060383FD21C08091070381FDED
:100B30001FC0ECCF8091060385FD1CC01DC08091B5
:100B4000060385FD19C016C08091060386FD16C0F8
:100B500017C08091060386FD13C010C089E311C041
:100B600082EE0FC080EE0DC080E00BC086EE09C0A3
:100B700084EE07C089E205C085E303C08AE201C0B4
:100B800081E390E008959091060392FF0DC0282F15
:100B90002871283019F4877F846006C0282F2471BB
:100BA000243011F48B7F886093FF0DC0282F2871AB
:100BB000283119F4877E846106C0282F24712431DE
:100BC00011F48B7E88612091070320FF0DC0382F20
:100BD0003871383019F4877F816006C0382F317141
:100BE000313011F48E7F886021FF0DC0282F2871CD
:100BF000283119F4877E816106C0282F21712131A7
:100C000011F48E7E886194FD877E0895E82FF0E0D0
:100C1000EE0FFF1FE252FD4F8081918108950895EC
:100C200080EA8A95F1F7089508950C9414060C94BF
:100C300015060C9414060C941906CF93DF93AAE6BC
:100C4000B1E04FE651E061E070E08D91E82FE29570
:100C5000EF70F0E021A18F70EB0102C0CC0FDD1F1F
:100C60008A95E2F7CE019C2F9095922391A392A1B1
:100C7000892B82A34A175B0741F7ACE5B1E04AE64E
:100C800051E061E070E08D91E82FE295EF70F0E0C7
:100C900021A18F70EB0102C0CC0FDD1F8A95E2F716
:100CA000CE019C2F9095922391A392A1892B82A390
:100CB0004A175B0741F7E4EDF2E0AEEDB2E08EEDEE
:100CC00092E0119211921D921D928E179F07C9F703
:100CD00085E00E94FC06DF91CF910C9485036F9212
:100CE0007F928F929F92AF92BF92CF92DF92EF92BC
:100CF000FF920F931F93CF93DF938AE6C82E81E074
:100D0000D82E04ED12E09EEDA92E92E0B92E712CA2
:100D100088248394912CF60181916F01C82FC2958C
:100D2000CF70D0E099A18F70740101C0EE0C8A954C
:100D3000EAF7892F8E2989A38AA16E2C60948621D7
:100D40008AA30E941006ECE5F1E040E050E020E0CC
:100D500030E06191A62FA295AF70B0E090968C9193
:100D600090E06F7002C0959587956A95E2F780FDD7
:100D700008C0C401042E02C0880F991F0A94E2F72C
:100D800002C080E090E0282B392B4F5F5F4F4E3040
:100D90005105F9F689A1682269A28AA1E82AEAA286
:100DA000F801808191812817390721F03183208350
:100DB00081E001C080E0782A0E5F1F4FA016B106C7
:100DC00009F0A9CF272D45E06EED72E084ED92E0A9
:100DD0000E94FD060E948F03872DDF91CF911F9106
:100DE0000F91FF90EF90DF90CF90BF90AF909F90CA
:100DF0008F907F906F9008950895FF920F931F93A7
:100E0000CF93DF93F82E092F162FD72FC42F22232D
:100E100049F081E08093CE010E9445209093CD015E
:100E20008093CC018091CE018823D9F08091CC01B0
:100E30009091CD010E945120069798F0EF2DF02F50
:100E4000A12FBD2F80E090E04C2F50E08417950734
:100E500034F4219131912D933D930196F7CF109267
:100E6000CE01DF91CF911F910F91FF900895EF92E6
:100E7000FF920F931F93CF93DF93F62E472FE82F08
:100E8000F0E0711106C0EA5AFC4F6491762F862F6C
:100E900072C0272F30E0EA5AFC4FE4910E2F10E089
:100EA00056E0659FC0011124CFEFD0E0BE010E9443
:100EB000FC2B5BEA5603C001579F900D11248F0D48
:100EC000911D8F0D911D982F990F890F7E01E21AA8
:100ED000F30AE09ED001E19EB00DF09EB00D11240A
:100EE000489FA0011124452F55277E01E41AF50AD9
:100EF000E09EA001E19E500DF09E500D11247E0158
:100F0000E81AF108E29EC001E39E900DF29E900D5A
:100F10001124892F9927C81BD90BC09FC001C19FDD
:100F2000900DD09F900D11246230710591F048F41E
:100F300061157105E1F061307105A9F48B2F752FF2
:100F400019C06430710561F038F06630710579F0D0
:100F50000AC0892F7B2F0EC08E2F7B2FE52F0AC052
:100F60008E2F792F02C0852F7E2FEB2F03C08B2F62
:100F70007E2FE92F6E2FDF91CF911F910F91FF9060
:100F8000EF9008950895CF93DF93762FE901682FAE
:100F9000842F0E943707798368838A83DF91CF91FA
:100FA00008958091E802282F269530E0211531051B
:100FB00019F48170826005C02B32310524F08170F4
:100FC00084658093E802089588E090E00C94D72C23
:100FD000CF92DF92EF92FF926B017C010E94D107CA
:100FE000B701A60188E090E0FF90EF90DF90CF90EE
:100FF0000C94F52CE8EEF2E083E0808311828FEF11
:1010000082838383148260817181828193810C94B5
:10101000E8078091E80280FF02C08695089580E08D
:1010200008958091EC02833018F48F5F8093EC0276
:101030006091E8027091E9028091EA029091EB02DE
:101040000C94E8078091EC02882319F0815080937A
:10105000EC026091E8027091E9028091EA029091BD
:10106000EB020C94E80770E00C94261060910701E5
:101070008091E80280FF0AC08091060123E0829FF0
:10108000C001112483519D4F0C94330880910801B5
:1010900090910901891780F7E82FF0E09F01220F56
:1010A000331FE20FF31FE351FD4F118210821282B2
:1010B0008F5FF0CF9091E80290FF16C090910801E9
:1010C00020910901921770F4E92FF0E0DF01AA0FD7
:1010D000BB1FEA0FFB1FE351FD4F818360834283F7
:1010E0009F5FF0CF0C9436080895CF93DF9300D024
:1010F0001F92CDB7DEB79091E80290FF0AC09E0123
:101100002F5F3F4F0E94C3074B8169818A810E94F4
:101110005A080F900F900F90DF91CF910895CF93C1
:10112000DF93EC01EC81F0E0EF5AFD4F4491E8EEE3
:10113000F2E0628181810E9475088C818F5F8C83CF
:10114000DF91CF910895CF93DF93EC01E8EEF2E0C9
:10115000438162818C810E9475088C818F5F8C83B2
:10116000DF91CF9108950F931F93CF93DF9300D01A
:101170001F92CDB7DEB78C018091CF0181110AC0DB
:101180009E012F5F3F4F4FEF6FEF0E94C3078A8191
:101190008093CF01F8018481813051F028F08230B2
:1011A00061F44091CF010AC08091CF0140E007C0B7
:1011B0006091CF0140E080E003C040E080E060E06B
:1011C0000E945A08F801848190E0019663E070E083
:1011D0000E94102C84830F900F900F90DF91CF917D
:1011E0001F910F910895AF92BF92CF92DF92EF922D
:1011F000FF920F931F93CF93DF9300D01F92CDB731
:10120000DEB7182FF62E042FE22E9091E80290FF01
:101210006DC0E92FE695AE2FB0E0A159BE4F8C917D
:101220008093F7019E7F923061F49E012F5F3F4FC4
:10123000812F0E94C3074B8169818A810E945A08CD
:1012400043C0823019F40091EB023EC0863019F49D
:101250001091E90239C08930D9F38931A9F5E951F2
:101260008E2F8170D82EE695F0E0EF5AFC4FA590B6
:10127000B490C12CBB2460910A01C61618F52C2D20
:1012800030E0A29EC001A39E900DB29E900D11244D
:1012900070E00E94FC2B812FD11002C0860F01C08C
:1012A000861B90910801290F311DA901440F551F7C
:1012B000240F351F23513D4F402F6F2D0E94C30730
:1012C000C394D9CF0E9436081093E902F092EA0243
:1012D0000093EB02EE2051F06091E8027091E90278
:1012E0008091EA029091EB020E94E8070F900F9024
:1012F0000F90DF91CF911F910F91FF90EF90DF90B2
:10130000CF90BF90AF900895E8EEF2E09181282F42
:10131000438162818AE0890F0C94F30881E00C9488
:101320008409E8EEF2E09181282F4381628186EF03
:10133000890F0C94F30881E00C949109E8EEF2E037
:10134000628121E1620F08F46FEF282F43818181D0
:101350000C94F30881E00C949E09E8EEF2E06281BF
:1013600021E1621B08F460E0282F438181810C9405
:10137000F30881E00C94AD09E8EEF2E0438121E14D
:10138000420F08F44FEF282F628181810C94F308FB
:1013900081E00C94BC09E8EEF2E0438121E1421BBC
:1013A00008F440E0282F628181810C94F30881E0E9
:1013B0000C94CB0920E00C94F308FF920F931F9339
:1013C000CF93DF93EC01F12C0FEF10E060910A0155
:1013D000F616F0F4809108012F2D30E0280F311D12
:1013E000C901880F991F280F391F23513D4F70E005
:1013F000C8010E94102C962F8C814091EB026091C5
:10140000EA02F99E800D11240E94C307F394DECFF7
:101410000E9436089A818C8190FF02C08F5F01C0C4
:1014200081508C83DF91CF911F910F91FF90089590
:10143000AF92BF92CF92DF92EF92FF920F931F93E2
:10144000CF93DF93FC01828180FF02C00FEF01C0C8
:1014500001E010E046E0A42E80910A01181708F080
:1014600043C080910801C12ED12CE601C80FD11DC7
:10147000CE01880F991FC80FD91FC351DD4F1982A4
:1014800018821A8234E0E32EF12CB12C8091D10124
:101490008B0D87302CF06A2D0E94EE2B892F05C012
:1014A00087FF03C090910A01890F082E000C990B49
:1014B000C816D90691F48091EB028E9DA0018F9DF4
:1014C000500D112455954795559547959E0160916E
:1014D000EA028091E9020E94C307B00EF1E0EF1A20
:1014E000F108A1F61F5FB8CF0E9436088091D101A4
:1014F000013031F4811102C080910A01815007C08E
:1015000090E0019660910A0170E00E94102C809397
:10151000D101DF91CF911F910F91FF90EF90DF905C
:10152000CF90BF90AF900895CF9380910801909194
:101530000901891770F4E82FF0E09F01220F331F93
:10154000E20FF31FE351FD4F1182108212828F5F71
:10155000F0CFC0E060910A01C617C0F5EC2FF0E0B3
:1015600070E0CF010E94102C20910801820F209181
:10157000D001022E000C330B90E0E217F307CCF001
:1015800020910501022E000C330B2E173F078CF023
:101590009C01220F331F820F931F9C0123513D4F4B
:1015A0004091EB026091EA028091E9020E94C30738
:1015B0000BC0FC01EE0FFF1F8E0F9F1FFC01E351BC
:1015C000FD4F118210821282CF5FC4CF0E94360875
:1015D000209104018091D001820F8093D0019091DD
:1015E0000501920F9093050119165CF4082E000C6A
:1015F000990B40910A0150E0415051098417950719
:101600001CF0219520930401CF9108950F931F930F
:10161000CF93DF938C01FC018481958101968170C9
:10162000992795838483C0E0D5E580910A01C81786
:1016300000F5809108012C2F30E0280F311DC901E1
:10164000880F991F280F391F23513D4F4C2F469566
:10165000F80184819581840F911D81704091EB0286
:101660006091EA028D9F802D11240E94C307CF5FF5
:10167000DCCFDF91CF911F910F910C9436080F931F
:101680001F93CF93DF93EC0100E010E080910A01FB
:10169000282F30E00217130724F5909108019801D4
:1016A000290F311DA901440F551F240F351F235148
:1016B0003D4F869590E04C81081719071CF4442390
:1016C00031F002C0411103C04091EB0201C040E083
:1016D0006091EA028091E9020E94C3070F5F1F4FE9
:1016E000D5CF0E9436088C8190E0019681709927B1
:1016F0008C83DF91CF911F910F9108958F929F92CC
:10170000AF92BF92CF92DF92EF92FF920F931F930F
:10171000CF93DF93FC01B280948081E0848300E06A
:1017200015E05BE4A52E88248394EE24EA94F12C42
:101730007BE4C72ED12C80910A01081708F08FC0D6
:10174000C02FD0E01C9FF0011D9FF00D1124EE5220
:10175000FE4F911003C01382128267C0238122239F
:1017600089F1215023833481332319F09A2D921B60
:1017700001C0922F8091EB021C9FF0011D9FF00D84
:101780001124EE52FE4F899FC0011124B6010E9420
:10179000FC2B6283211104C0332311F01482A38235
:1017A00022E02B1508F441C01C9FF0011D9FF00D95
:1017B0001124EE52FE4F8091E90280838091EA026B
:1017C000818333C00E94B22C8230914074F582E054
:1017D0008B1530F40E94B22CB7010E94102C02C06D
:1017E0008091E9021C9FF0011D9FF00D1124EE5223
:1017F000FE4F808322E02B1558F40E94B22C2091DA
:10180000EA022695622F70E00E94102C820F02C01F
:101810008091EA021C9FF0011D9FF00D1124EE52F1
:10182000FE4F81831282A3828482809108019E01EF
:10183000280F311DC901880F991F280F391F235107
:101840003D4F1C9FF0011D9FF00D1124EE52FE4FE5
:101850004281618180810E94C3070F5F6CCFDF915D
:10186000CF911F910F91FF90EF90DF90CF90BF909D
:10187000AF909F908F900C943608E8EEF2E0808154
:101880008E7F808360817181828193810E94E807CD
:101890001092F8012FEF80E792E0215080409040B5
:1018A000E1F700C000000C9436086091E8026695EC
:1018B00070E04BE050E08BE091E00E94C22C892B5D
:1018C00019F481E08093F8010E9445209093F10182
:1018D0008093F00108959091E80290FF35C09170D7
:1018E000811102C0926006C08B3210F0946502C074
:1018F000880F982B9093E802662351F06091E802DC
:101900007091E9028091EA029091EB020E94E8074F
:101910006091E802669570E04BE050E08BE091E06A
:101920000E94C22C892B19F01092F80102C00E946B
:10193000550C81E08093F3014091EB026091EA0243
:101940008091E9020C94DA090895682F9091E802D9
:10195000969581E0890F8B3208F081E00C946B0C36
:1019600081E00C94A50C682F9091E80296958FEF7A
:10197000890F09F48AE20C946B0C81E00C94B30C8F
:1019800061E00C946B0CE8EEF2E080818160808372
:1019900086950C94C00C8091E80280FD0C943D0C5F
:1019A0000C94C30C60E00C946B0C8091F6018111D7
:1019B0002EC00E943E1E811104C00E94F11E0E9492
:1019C000FA070E94E4076093E8027093E9028093AB
:1019D000EA029093EB026E7F61F40E94FA070E9484
:1019E000E4076093E8027093E9028093EA0290931F
:1019F000EB020E94D1071092F8018091E80280FF6B
:101A000003C086950E94D20C81E08093F601089570
:101A10000F931F93CF93DF938091F801882309F4EC
:101A20009CC08091F701E091E802E695E81BE09305
:101A3000F201823049F4F0E0E35BFD4FE491CE2FF8
:101A4000D0E00FE818E059C0863049F4F0E0E65BDA
:101A5000FD4FE491CE2FD0E003EA18E04EC089306C
:101A600051F4E695F0E0E95BFD4FE491CE2FD0E034
:101A70000DED19E042C08F3051F4E695F0E0EC5BDB
:101A8000FD4FE491CE2FD0E008E11AE036C0853159
:101A900049F4F0E0EF5BFD4FE491CE2FD0E004E994
:101AA0001AE02BC08831D9F0833239F4EFE3F2E049
:101AB000C591D49103EB18E020C08432A9F085329F
:101AC000C1F48E2F63E00E94E22BE92FF0E0E45C8A
:101AD000FD4FE491CE2FD0E00EE71BE00EC0C8EE24
:101AE000D3E006E01BE009C0C4EFD1E00FE31BE048
:101AF00004C0C0EDD7E002EC17E08091F301882329
:101B000089F01092F3010E9445209E0120953095A6
:101B1000820F931F9093F1018093F0011092F501D1
:101B20001092F4018091F0019091F1010E945120F6
:101B30008C179D0790F0E091F001F091F101CE0F2C
:101B4000DF1FD093F101C093F00180EF91E0F80125
:101B5000DF91CF911F910F910994DF91CF911F9148
:101B60000F910895882311F0FA0101C0FB01099437
:101B7000CF93DF93C82FD62F0E9409088C1740F00F
:101B80000E9409088D1720F4DF91CF910C94B00CBE
:101B90008C2FDF91CF910C94C00C0F931F93CF9398
:101BA000FB01C281CC2309F463C08C010E948D1D0E
:101BB0008272F801E25CFC45E431F10508F059C09D
:101BC000EA5AFF4F0C94462C0E94CB0C06C04DEBFA
:101BD0005CE060EB7CE00E94B20DC0E04AC040EBEC
:101BE0005CE06DEB7CE0F7CF4BE959E06EE879E023
:101BF000F2CF4EE859E06BE979E0EDCF49EB59E0DF
:101C00006AEA79E0E8CF4AEA59E069EB79E0E3CFA4
:101C100047ED59E068EC79E0DECF48EC59E067ED3C
:101C200079E0D9CF42E258E061E178E0D4CF41E1F8
:101C300058E062E278E0CFCF81E017C065E082E053
:101C400010C068E086E00DC06EE089E00AC064E183
:101C50008FE007C067E185E104C088E106C062E269
:101C600089E10E94B80DB9CF83E20E94C00CB5CFC4
:101C7000C1E08C2FCF911F910F9108950E943E1EBD
:101C8000811102C00E94F11E0E94791E8093FF0202
:101C9000282F26952695269530E02730310524F00B
:101CA000877080638093FF028091FF0280FF04C0F1
:101CB00086958695869501C080E00C949E0F2091B4
:101CC000FF02822F869586958695482F50E04630F4
:101CD000510554F48F5F982F990F990F990F822F08
:101CE0008770892B8093FF028091FF02816080932F
:101CF000FF020E947D1E8091FF0286958695869543
:101D00000C949E0F8091FF02982F9695969596952C
:101D1000A1F0915E990F990F990F8770892B80938D
:101D2000FF02887F91E009F490E08091FF0290FB30
:101D300080F98093FF020E947D1E8091FF028695AC
:101D4000869586950C949E0F8091FF0280FD13C0AE
:101D500081608093FF02813019F489E08093FF0253
:101D60008091FF020E947D1E8091FF0286958695DC
:101D700086950C949E0F08958091FF0280FF08C005
:101D80008E7F8093FF020E947D1E80E00C949E0F48
:101D900008958091FF0280FD0C94BC0E0C94A40E5B
:101DA0009091FF02892F8695869586958F5F8F711A
:101DB0009770873038F4880F880F880F892B8093AD
:101DC000FF0202C09093FF028091FF02887F91E0A2
:101DD00009F490E08091FF0290FB80F98093FF026C
:101DE0000E947D1E8091FF028695869586950C94B3
:101DF0009E0F873008F086E09091FF029770282FA1
:101E0000220F220F220F922B9093FF02987F21E046
:101E100009F420E09091FF0220FB90F99093FF02DB
:101E20000C949E0F0E94F90E8091FF020C947D1E6F
:101E30009C01FB018281882349F12D3BFCE53F0792
:101E4000C9F040F42B3BECE53E0769F02C3B3C45E8
:101E500061F008952F3B9CE5390791F070F0203C2C
:101E60003C4589F0089586E001C080E00E94120F91
:101E700080E008950E94820EFBCF0E945F0EF8CF93
:101E80000E94C90EF5CF0E94D00EF2CF81E00895D6
:101E9000859A8D9A08958D9808958D9A08951F9228
:101EA0000F920FB60F9211242F933F934F935F938E
:101EB0006F937F938F939F93AF93BF93EF93FF9312
:101EC0000E944D0FFF91EF91BF91AF919F918F9124
:101ED0007F916F915F914F913F912F910F900FBE26
:101EE0000F901F9018951F920F920FB60F9211240A
:101EF0002F933F934F935F936F937F938F939F9312
:101F0000AF93BF93EF93FF938091880090918900E6
:101F10008130914010F00E944B0FFF91EF91BF91E3
:101F2000AF919F918F917F916F915F914F913F9171
:101F30002F910F900FBE0F901F901895CF92DF92A8
:101F4000EF92FF92CF93C82F8730A8F4811114C06D
:101F50008091880090918900892B51F080916F00C9
:101F60008D7F80936F0080916F008E7F80936F00D4
:101F70000E944D0F11C0C6E08091880090918900A9
:101F8000892B51F480916F00826080936F00809163
:101F90006F00816080936F002C2F30E0AFEFBFEFB8
:101FA0000E944C2C26E030E040E050E00E94242CBF
:101FB000C9012C3764E1360728F469E070E00E941B
:101FC000FC2B29C0DA01C9018A50974DAF4FBF4F92
:101FD0006627782F892F9A2F25EF38E241E050E0CD
:101FE0000E94242C69017A01CA01B9010E94D22BF6
:101FF0009B01AC01C701B6010E94D22BBB27A92FC0
:10200000982F872F009721E0A207B10511F0BC019E
:1020100002C06FEF7FEF7093890060938800CF91CB
:10202000FF90EF90DF90CF90089508950E94480FA1
:1020300082E08093800089E1809381008FEF9FEFA1
:1020400090938700809386000C943E0E869A21B36D
:102050002F7B31B330644FB7F894FC01CB01880F6C
:10206000991F680F791F6E0F7F1FE617F70789F01A
:10207000819198E031BB000000C087FF21BB880F31
:10208000000000C000C000C021BB00C09A9591F7BD
:10209000ECCF4FBF8FE594E00197F1F700C000004F
:1020A00008950F931F93CF93DF93C62FD42F122F32
:1020B000FC0182818823C9F06093FB010E944520C6
:1020C0009093FA018093F90180E28C0F883008F038
:1020D00057C0C77081E001C0880FCA95EAF7DF9149
:1020E000CF911F910F910C94FA148091FB0168130A
:1020F00030C08091F9019091FA010E945120883CF2
:10210000910538F500E20D0FCD17B9F080E28C0F84
:10211000883040F4C77081E001C0880FCA95EAF7A3
:102120000E940115083028F581E09D2F977001C0AD
:10213000880F9A95EAF70E94FA14812F0E94E714FB
:102140000830F0F4D77081E001C0880FDA95EAF723
:102150000AC080E28C0F883098F4C77081E001C01B
:10216000880FCA95EAF7DF91CF911F910F910C94D8
:102170000115812FDF91CF911F910F910C94E714DE
:10218000DF91CF911F910F9108959C01CB01233FC7
:102190004CE53407F9F078F4283DFCE53F07B9F049
:1021A000293D4CE5340711F1273D3C4531F526E248
:1021B00041EE61EE1EC0253FFCE53F0799F070F04F
:1021C000263F3C45D1F427E245EE66EE12C027E2F9
:1021D00045EE0EC026E241EE60EE0BC027E245EE72
:1021E00064EE07C026E241EE62EE03C028E241E061
:1021F00065EE0E94511080E00895FC0182818823E1
:1022000019F01092FB01089581E00895CF93DF93B8
:10221000EC01FB018281882309F41FC1C230FCE577
:10222000DF0708F41BC1C6319CE5D90738F09E01D1
:102230002A5F3C452930310508F010C10E945B1E21
:102240009093070380930603C031ECE5DE0709F4A1
:10225000C3C008F041C0C8308CE5D80709F49AC063
:10226000F0F4C430ECE5DE0709F487C068F4C2304E
:102270008CE5D80709F477C0C330DC4509F0E3C02A
:1022800080910603826076C0C630ECE5DE0709F473
:102290006EC008F07BC08091060388606BC0CC30B4
:1022A0008CE5D80709F485C068F4CA30ECE5DE0790
:1022B00009F474C008F079C00E94C1178091060328
:1022C000806858C0CE308CE5D80709F476C008F095
:1022D0007FC0809106038BC0CB3FECE5DE0709F49D
:1022E0004FC018F5C3318CE5D80709F47DC078F4E8
:1022F000C131ECE5DE0709F473C0C231DC4509F0F9
:10230000A2C00E94C117809106038F7733C0C531E8
:102310008CE5D80709F472C008F486C0CA3FDC45D2
:1023200009F091C0809107033EC0CF3FFCE5DF0775
:1023300009F45FC058F4CD3F9CE5D90709F444C0C7
:1023400008F43FC08091070382602DC0C130FDE5D5
:10235000DF0709F475C008F45DC0C230DD4509F03F
:1023600072C080E06EC080910603816003C08091DE
:10237000060380618093060366C08091060311C046
:10238000809107038260809307035DC080910603FC
:102390008062F0CF809106038064ECCF80910603C9
:1023A00088608460E7CF8160EECF809106038E7FE6
:1023B000E1CF809106038D7FDDCF80910603877F7B
:1023C000D9CF8091070318C0809107038D7FDBCFA1
:1023D000809106038F7ECECF809106038F7DCACF7A
:1023E000809106038F7BC6CF80910603877F8B7F0A
:1023F000C1CF809107038D7F8E7FC5CF809106036B
:1024000082FB222720F991E0922790FB82F990FB32
:1024100083F9B0CF80910703982F909591708E7FAC
:10242000892B90FB81F9AFCF0E94C11780910603E1
:1024300087FB222720F991E0922790FB87F99ACF1A
:1024400081E00E94F31E80910603909107030E9491
:102450006C1E0E94C11780E001C081E0DF91CF9126
:102460000895CF93DF9386319C4541F5EB010E949F
:102470008D1D982F8A812091160130911701882394
:1024800079F09A7A81E009F480E08093FC0191115F
:1024900002C069E201C065E3C9010E948E1F0AC043
:1024A0008091FC01811102C069E201C065E3C901AC
:1024B0000E94991F0E94DB1D80E001C081E0DF9136
:1024C000CF91089590930202809301020895E091C4
:1024D0000102F0910202309721F00190F081E02D8D
:1024E000099480E00895E0910102F0910202309792
:1024F00099F020912A01222359F02091060327FF09
:1025000007C0DC012C9111962C93119725E02C9398
:102510000280F381E02D09940895E0910102F09189
:102520000202309739F022E0DC012C930480F5811F
:10253000E02D099408952091FF01309100022817A1
:10254000390771F0909300028093FF01E09101023E
:10255000F0910202309721F00680F781E02D099476
:1025600008952091FD013091FE012817390771F07F
:102570009093FE018093FD01E0910102F09102022F
:10258000309721F00084F185E02D0994089585B7F6
:10259000806885BF85B7806885BF089508950C94CD
:1025A000CE120C94CF120C94CE120C94CE120E9428
:1025B000C7120E94D3120C94D11281E008950C949A
:1025C000DD120E943C200E941D060E94F6200E94FF
:1025D0003E0E0E94D50C0C94D5127F928F929F9242
:1025E000AF92BF92CF92DF92EF92FF920F931F9321
:1025F000CF93DF93CDB7DEB72A970FB6F894DEBF3F
:102600000FBECDBF0E946F060E94DF12811111C064
:102610008FEF89838A831B820E9445208160782FF7
:102620009D838C8349815A816B818D810E94A11386
:102630004FC044E0A42E42E0B42E00E010E0702E23
:10264000802F0E9406066C01F501819091905F0138
:10265000882699268114910431F40F5F1F4F0530AD
:10266000110569F7D5CF8091A10281FD0E940F0667
:1026700080E0EE24E394F12C94012E213F21232BC2
:1026800009F18E837F82CE20DF2081E0CD2809F4FE
:1026900080E088870E9445208160782F9A8789870B
:1026A0004E815F8168858A850E94A113000F111FEA
:1026B000F801EC5FFD4F80819181E826F926F182D7
:1026C000E08206C08F5FEE0CFF1C8E30A9F6C5CFEE
:1026D0000E94080D0E9415100E94AA230E946712F2
:1026E000909103028917C9F00E9467128093030238
:1026F0002A960FB6F894DEBF0FBECDBFDF91CF9103
:102700001F910F91FF90EF90DF90CF90BF90AF900F
:102710009F908F907F900C9496032A960FB6F89412
:10272000DEBF0FBECDBFDF91CF911F910F91FF9004
:10273000EF90DF90CF90BF90AF909F908F907F9061
:102740000895CF93DF93CDB7DEB72B970FB6F894EC
:10275000DEBF0FBECDBF4F83588769877A878B87CF
:10276000DE01119686E0FD0111928A95E9F785E078
:10277000FE01379601900D928A95E1F749815A81C1
:102780006B817C818D819E810E947A1A2B960FB677
:10279000F894DEBF0FBECDBFDF91CF910895FC014D
:1027A000808191810E944E1D0895CF93882309F462
:1027B000A4C0C82F8238C1F40E94671281FD9DC059
:1027C00069E380911601909117010E948E1F0E946B
:1027D000DB1D2FEF81EE94E0215080409040E1F727
:1027E00000C0000069E319C0833801F50E94671238
:1027F00080FD83C063E580911601909117010E94CE
:102800008E1F0E94DB1D2FEF81EE94E0215080404F
:102810009040E1F700C0000063E5809116019091BF
:1028200017010E94991FCF910C94DB1D8438C1F4CD
:102830000E94671282FD61C067E480911601909149
:1028400017010E948E1F0E94DB1D2FEF81EE94E086
:10285000215080409040E1F700C0000067E4DDCFE8
:102860008CEF8C0F813AD0F46C2F809116019091EF
:1028700017010E940E1F882349F06C2F80911601CA
:10288000909117010E94991F0E94DB1D6C2F80916F
:102890001601909117010E948E1FC5CF80E28C0F08
:1028A000883048F4C77081E001C0880FCA95EAF704
:1028B0000E94901DB8CFEBE5EC0FE33040F4F0E060
:1028C000E853FE4F808190E0CF910C949B12E8E595
:1028D000EC0FE73150F4F0E0EE0FFF1FE656FE4F2D
:1028E00080819181CF910C94B112C03F30F08C2F38
:1028F0000E94B222CF910C949F23CF9108958823F8
:1029000009F464C0823879F40E94671281FF5EC0C6
:1029100069E380911601909117010E948E1F0E9419
:10292000DB1D69E310C08338B1F40E94671280FF99
:102930004DC063E580911601909117010E948E1F92
:102940000E94DB1D63E580911601909117010E94A2
:10295000991F0C94DB1D843879F40E94671282FF62
:1029600035C067E480911601909117010E948E1F77
:102970000E94DB1D67E4E7CF9CEF980F913A10F4BB
:10298000682FE1CF90E2980F983050F4877091E073
:1029900001C0990F8A95EAF7892F0E94961DD9CF19
:1029A0009BE5980F933020F480E090E00C949B120C
:1029B00098E5980F973120F480E090E00C94B112E4
:1029C000803F20F00E941A230C949F230895CF93F8
:1029D000C82F0E94D513C93349F42FEF87EE93E037
:1029E000215080409040E1F700C000008C2FCF9133
:1029F0000C947F14882321F00E94901D0C94DB1D01
:102A00000895882321F00E94961D0C94DB1D0895E3
:102A1000CF92DF92EF92FF920F931F93CF93DF93AA
:102A20007C01062FC72FFC01158112951F70D281E2
:102A3000D1110E94AD1D0E94861D882399F0DD23CF
:102A400089F08C2F807F803421F080E2800F8830E5
:102A500048F082E00E94251E0E94861D91E0D82E3B
:102A6000D92601C0D12CCC2EC2948FE0C8228C2D47
:102A700090E0FC01E659FF4F0C94462C8C2F807F90
:102A8000CF70882311F0C295C07FDD2399F0CC234D
:102A900009F4C4C180E2800F883010F0011104C035
:102AA0008C2F0E94901D03C08C2F0E94A01D0E949D
:102AB000DB1DB4C1802F0E947F14CC2309F4D3C145
:102AC00080E2800F883010F0011104C08C2F0E942A
:102AD000961D03C08C2F0E94A61D0E94DB1DC3C142
:102AE0008C2F807FCF70803211F0C295C07F002381
:102AF00019F00130C9F022C0DD2371F0112341F03B
:102B0000113031F40E94C01D8C2B0E94C81DABC136
:102B10000E94C01D8C2B1DC0112319F0113009F427
:102B2000A2C10E94D11D25C0DD2321F0163008F07E
:102B30009AC10EC0153008F096C11BC0DD2361F0AC
:102B4000112331F0F701858180FF68C18F70858383
:102B50008C2F0E94FA1487C1112359F0093309F010
:102B60006EC1FFEF27EE83E0F15020408040E1F797
:102B700064C18C2F0E94011576C18C2F8695869595
:102B8000837019F0813061F06EC1DD2321F0802F58
:102B90009C2F937002C080E090E00E949B126BC15A
:102BA000DD2321F0802F9C2F937002C080E090E005
:102BB0000E94B11260C1DD23F9F0053F51F0063FDC
:102BC00071F0043FA9F480910003909101038160AA
:102BD0000BC08091000390910103826005C0809139
:102BE000000390910103846090930103809300039C
:102BF000802F0E94B2221EC0053F51F0063F71F0A7
:102C0000043FA9F480910003909101038E7F0BC0D3
:102C100080910003909101038D7F05C08091000396
:102C2000909101038B7F9093010380930003802F89
:102C30000E941A230E949F231EC18C2F837009F0CB
:102C400045C0D11114C1402F429546954770440F9D
:102C5000440F602F6F70862F90E0A0E0B0E0042E4C
:102C600004C0880F991FAA1FBB1F0A94D2F704FF44
:102C700010C00FE010E020E030E004C0000F111F92
:102C8000221F331F4A95D2F7009510952095309555
:102C900003C000E010E09801C695C695C370BC0162
:102CA000CD01602B712B822B932BC23049F058F44D
:102CB000C13019F00E94CB1BDAC00E94B91BD7C0EB
:102CC0000E94DD1BD4C00E94B71BD1C0DD2319F0C8
:102CD0008C2F817001C08695882309F4C8C0402FCD
:102CE000429546954770440F440F602F6F70862FB2
:102CF00090E0A0E0B0E0042E04C0880F991FAA1F46
:102D0000BB1F0A94D2F704FF10C00FE010E020E0D0
:102D100030E004C0000F111F221F331F4A95D2F765
:102D2000009510952095309503C000E010E09801C3
:102D3000C695C695C370BC01CD01602B712B822B4B
:102D4000932BC23049F058F4C13019F00E94901C06
:102D50008EC00E947E1C8BC00E94A21C88C00E9454
:102D6000F11B85C0CF70DD2339F08C2F0E94171C1A
:102D7000802F0E94FA147BC0802F0E9401158C2F97
:102D80000E94381C74C0023F01F128F4003F41F05A
:102D9000013FA1F03FC0033FF9F0043F39F13AC0D1
:102DA000DD2341F0153008F05EC08C2F8F710E943A
:102DB0005D1C59C0163008F056C0F7CFDD2339F03E
:102DC0008C2F8F710E94171C4EC0DD23C9F38C2FEE
:102DD0008F710E94381C47C0DD2329F08C2F8F7122
:102DE0000E94021C40C00E94FD1B3DC0DD2349F033
:102DF000CF718C2F0E94171C63E08C2F0E94101E35
:102E000032C081E00E94251E123068F182E00E94EB
:102E1000251E29C0DD2331F0112391F2802F0E945D
:102E2000D51321C0112399F2093349F49FEFE7EE3E
:102E3000F3E09150E040F040E1F700C00000802F47
:102E40000E947F1410C04C2F4F70602FC7010E944A
:102E5000F8030E94281B0FC04C2F4F70602FC70132
:102E60000E94FB0308C088EF8C0D843020F40E9480
:102E700067120E949603DD20C9F00E94821D80FD2A
:102E800015C0F70112820E947C1D0E94171CC70109
:102E90000E9477170E947C1DDF91CF911F910F91A7
:102EA000FF90EF90DF90CF900C94381CDF91CF9182
:102EB0001F910F91FF90EF90DF90CF9008950F93A7
:102EC0001F93CF93DF93EC01688179818A810E94FF
:102ED000591D8C010E94B41C0E94A51BB801CE0193
:102EE0000E940815DF91CF911F910F910895CF9304
:102EF000DF93EC01988189812B813C81232B31F078
:102F00008F3F31F481E09F3F19F403C081E001C09D
:102F100080E080FD19C0CE010E94AF0381110CC07A
:102F20000E94861D882381F08A81882369F082E0CF
:102F3000DF91CF910C94251ECE010E945F17CE0128
:102F4000DF91CF910C947A03DF91CF9108950E9485
:102F5000AD1D0E94BD1D0E94DB1D0E94C9240E9460
:102F60009F2380E090E00E949B1280E090E00C9410
:102F7000B11280911601909117010E94A41F0C9428
:102F8000A7170E949D1D0C94B917E92FE295EF70C9
:102F90004E2F50E0FA013297EE30F105B0F4E658CA
:102FA000FF4F0C94462C803F91F018F4883E68F453
:102FB0000EC0843F51F40BC0883E48F0813F29F495
:102FC00006C093FB882780F9089580E0089581E08A
:102FD00008950E944E1D0E94C5170895CF93DF9358
:102FE00000D000D01F92CDB7DEB70F900F900F909A
:102FF0000F900F90DF91CF910895CF93DF9300D082
:1030000000D000D0CDB7DEB726960FB6F894DEBF5D
:103010000FBECDBFDF91CF9108951F93CF93DF9364
:10302000C0910F0216E080911002C81799F0D0E00D
:103030001C9FF0011D9FF00D1124EF5EFD4F40819C
:10304000518162817381848195810E94FD1721964F
:10305000C770E9CFDF91CF911F9108954091410250
:103060005091420260914302709144028091450266
:10307000909146020C94FD170F931F93CF93DF930B
:103080008091460282958F7009F05DC08091430265
:10309000882309F458C080910F02109110026091AA
:1030A000410270914202C0914402D091450291E0E8
:1030B0006F3F09F090E0292F06E0811709F443C023
:1030C000209721F07F3F21F030E003C031E001C0C4
:1030D000322F90E030FD34C0089FF001099FF00DC1
:1030E0001124DF01AF5EBD4F11963C91119737134C
:1030F00027C03C91361324C012963C91129731118F
:103100001FC013964D915C9114974C1B5D0B483C6E
:103110005105B0F4809146028F7080618093460221
:10312000EA5EFD4F80818F708061808381E492E050
:103130000E947717DF91CF911F910F910C940D187A
:1031400001968770BACFDF91CF911F910F910895AB
:103150009F92AF92BF92CF92DF92EF92FF920F9326
:103160001F93CF93DF93CDB7DEB761970FB6F89477
:10317000DEBF0FBECDBF8C0185E0F801DE011D96DC
:1031800001900D928A95E1F7F80140815181E2802A
:103190009091410260914202209144023091450297
:1031A0002115310531F06F3F31F481E09F3F19F473
:1031B00003C081E001C080E0F82FF1709F2E80FDF8
:1031C00046C1F801A380B48081E4C82E82E0D82EE5
:1031D000F0904302F501E21BF30BFF2009F4DFC07E
:1031E00080914602E83CF10508F09BC0282F207F23
:1031F00009F052C0561313C0491311C0FE2CE11040
:103200000EC08F708061809346020E942E18C60106
:103210000E94771780914602F801858358C1AB2838
:1032200031F05F3F31F481E04F3F19F403C081E09A
:1032300001C080E080FD03C081E08E2502C080E0F7
:1032400090E0F82FF170FF2E80FF1CC080910F02DC
:103250002091100236E0821709F417C190E0389FE0
:10326000F001399FF00D1124EF5EFD4F618156137F
:1032700006C06081461303C06281E61203C0019656
:103280008770E9CFFE2CEE2009F421C1809146021F
:103290008160809346025AC0561306C0491304C089
:1032A000E11002C0F8019FC04D875E878D859E8525
:1032B0000E94E917882379F1EE2069F120914602F6
:1032C000822F82958F7090E0029774F08091410276
:1032D0009091420298878F831986BB86AA862C8795
:1032E000CE0107960E94771786E0F801A1E4B2E0CC
:1032F00001900D928A95E1F70E943C180E942E18C9
:103300000DC0561729F14D875E878D859E850E94D9
:10331000E91781112CC0C8010E947717FF24F3948C
:10332000D6C0282F207F69F77A2DB98AA88A6E2DFA
:1033300089890E94EE1781E492E00E94771786E067
:10334000F60111928A95E9F70E942E18F12CBFC060
:103350004913D9CFE110D7CFF8018583C8010E9466
:10336000771786E0F60111928A95E9F7B0C0EE2052
:1033700091F220914602822F82958F7090E0029701
:103380000CF4B2CF80914102909142029A838983DA
:103390001B82BD82AC822E83CE010196A3CFE83C76
:1033A000F10508F047C0FE2CEE2009F4B4CF561307
:1033B00030C049132EC02091460220FD21C0822F2B
:1033C00082958F70482F50E041155105C9F0F801E2
:1033D00025834F30510541F08F5F982F9295907F54
:1033E000822F8F70892B8583C8010E94771786E012
:1033F000F801A1E4B2E001900D928A95E1F742C094
:1034000086E0F801A1E4B2E001900D928A95E1F71F
:103410005EC04D875E878D859E850E94E91781116C
:1034200063CF80914602816080934602C8010E946A
:1034300077174DC07A2DB98AA88A6E2D89890E9486
:10344000EE1786E0F60111928A95E9F71BC0EE208F
:1034500009F461CF4D875E878D859E850E94E917AF
:10346000F82E882309F457CF86E0F801A1E4B2E0F2
:1034700001900D928A95E1F781E492E00E94CF13CA
:103480000E943C180E942E1822C04D875E878D85B1
:103490009E850E944E1D292F22952F70223028F4E0
:1034A0009F7039F0811105C00BC0243028F49F7043
:1034B00049F4805E883020F0C8010E9477179F2C65
:1034C000F92C05C0F8019581907F99F7F9CF8F2DE0
:1034D00061960FB6F894DEBF0FBECDBFDF91CF91DE
:1034E0001F910F91FF90EF90DF90CF90BF90AF9022
:1034F0009F9008951F93CF93DF93CDB7DEB72C979E
:103500000FB6F894DEBF0FBECDBF4F8358876987D3
:103510007A878B879C87CE0107960E94A8188823FC
:10352000D1F09F8188852A853B85232B31F08F3F01
:1035300031F481E09F3F19F403C081E001C080E0D5
:1035400080FD47C04F81588569857A858B859C852C
:103550000E94FD173EC086E0FE013796DE011196FF
:1035600001900D928A95E1F7FF81E8856A857B8558
:103570006115710531F0EF3F31F481E0FF3F19F43F
:1035800003C081E001C080E080FD23C020911002D3
:1035900030E0C90101968770992740910F0250E0F1
:1035A00084179507F1F1F983EA837D836C8396E0B4
:1035B000929FD001939FB00D1124AF5EBD4FFE01CD
:1035C000319601900D929A95E1F7809310020E9436
:1035D0000D1816E080910F0290911002891771F179
:1035E000189FC00111248F5E9D4F0E94A818882348
:1035F00029F1E0910F021E9FF0011124EF5EFD4FB3
:103600004081518162817381848195810E94FD177F
:1036100080910F0290E001968770992780930F02A6
:10362000D9CF0E94C1171092100210920F02E1E44C
:10363000F2E086E0DF011D928A95E9F72C960FB63D
:10364000F894DEBF0FBECDBFDF91CF911F910895DB
:10365000EF92FF920F931F93CF93DF938C01892BEF
:1036600009F46CC0F12CEE24E394E8012196F801F2
:103670008491843740F4843008F051C0813081F067
:10368000823019F15BC0853709F444C0A8F19CE78A
:10369000980F903708F052C08F770E947F1441C076
:1036A0000E5F1F4FFE01849190E2980F983050F406
:1036B0008770FE2D01C0FF0F8A95EAF78F2F0E94B9
:1036C000B01D14C00E94D5132DC00E5F1F4FFE0108
:1036D000849190E2980F983060F48770FE2D01C0BD
:1036E000FF0F8A95EAF78F2F0E94B61D0E94DB1DFF
:1036F00019C00E947F1416C00E5F1F4FFE01C491B7
:10370000CC2381F08FE99FE00197F1F700C0000022
:10371000C150F6CF0E5F1F4FFE01F49003C00E9410
:10372000D5138E018F2D882309F49FCFEFE9FFE099
:103730003197F1F700C000008150F5CFDF91CF91B4
:103740001F910F91FF90EF900895089508950C94A4
:10375000A61B0C94A71B0E94A91B60937802709370
:10376000790280937A0290937B020C94A7170C94B1
:10377000AB1B0F931F930091780210917902209157
:103780007A0230917B02602B712B822B932B1F913D
:103790000F910C94AB1B0F931F9300917802109123
:1037A000790220917A0230917B0260237123822377
:1037B00093231F910F910C94AB1B0F931F930091B8
:1037C00078021091790220917A0230917B02602771
:1037D0007127822793271F910F910C94AB1B0C9498
:1037E000A61B0E94EF1B6093740270937502809376
:1037F0007602909377020C94A71760E070E0CB01FB
:103800000C94F11B0F931F9341E050E060E070E0D7
:103810008A019B0104C0000F111F221F331F8A95CC
:10382000D2F7C901B8011F910F910C94F11B0F93AE
:103830001F9341E050E060E070E004C0440F551F6A
:10384000661F771F8A95D2F7809174029091750256
:10385000A0917602B09177028A019B01082B192B67
:103860002A2B3B2BC901B8011F910F910C94F11B1E
:103870000F931F9341E050E060E070E004C0440FFC
:10388000551F661F771F8A95D2F740955095609512
:1038900070958091740290917502A0917602B0911A
:1038A00077028A019B01082319232A233B23C9019C
:1038B000B8011F910F910C94F11B0F931F9341E0DE
:1038C00050E060E070E004C0440F551F661F771F92
:1038D0008A95D2F78091740290917502A091760238
:1038E000B09177028A019B01082719272A273B27D5
:1038F000C901B8011F910F910C94F11B0F931F93F5
:103900000091740210917502209176023091770235
:10391000602B712B822B932B1F910F910C94F11B19
:103920000F931F93009174021091750220917602FB
:103930003091770260237123822393231F910F918B
:103940000C94F11B0F931F93009174021091750258
:103950002091760230917702602771278227932782
:103960001F910F910C94F11B08952EE0929F800DF2
:103970001124E82FE695E695E695877051E001C0A1
:10398000550F8A95EAF785E0E89FF0011124E95B7D
:10399000FD4F20E030E070E04081CB01022E02C0FC
:1039A000969587950A94E2F78170819584278523FF
:1039B000842781932F5F3F4F2530310569F70895A4
:1039C0002EE0929F800D1124682F6695669566956E
:1039D000982F977085E0689FB001112440E050E077
:1039E00080E0FB01E40FF51FE95BFD4F208130E033
:1039F000092E02C0369527950A94E2F721703327E5
:103A0000042E01C0220F0A94EAF7822B4F5F5F4F0A
:103A10004530510531F70895BF92CF92DF92EF9272
:103A2000FF920F931F93CF93DF938C01C09074028A
:103A3000D0907502E0907602F09077028091780243
:103A400090917902A0917A02B0917B02C82AD92A7A
:103A5000EA2AFB2ACFE1D0E0D701C6010C2E04C030
:103A6000B695A795979587950A94D2F780FD04C0DF
:103A7000219790F7B12C07C0BC2EB8018C2F0E9463
:103A800017040197A9F38B2DDF91CF911F910F910F
:103A9000FF90EF90DF90CF90BF900895CF93DF938A
:103AA000EC010E940C1DBE010E941704DF91CF9112
:103AB00008951F93CF93DF93EB0190910E0299230A
:103AC00021F0CB010E944E1D13C0882349F0CB0189
:103AD0000E940C1D182F682FCE010E94B51C04C037
:103AE000CB010E94E01C182FBE01812F0E941704F9
:103AF000DF91CF911F91089580917C0285958595E6
:103B00008595089580917C028770089590917C023C
:103B1000977081E009F480E008958091A0020895F3
:103B20009091A002892B8093A00208958095909196
:103B3000A00289238093A00208951092A002089504
:103B400090919F02892B80939F0208958095909178
:103B50009F02892380939F02089510929F020895E7
:103B600090919E02892B80939E020895809590915A
:103B70009E02892380939E02089510929E020895CA
:103B800080917D02089508950C94C31D0C94C41D6A
:103B900090917D02981721F080937D020C94C61DB0
:103BA000089580917D02882329F010927D0280E0A3
:103BB0000C94C61D0895E0911601F09117018091B3
:103BC000A0028083E0911601F0911701908180910D
:103BD0009F02892B8083E0911601F091170190815B
:103BE00080919E02892B808380917D02882381F0C1
:103BF000E0911601F09117019081892B80838091CB
:103C00001601909117010E94F81E81110E94D11D8A
:103C100080911601909117010C9473120C94C31D9E
:103C200098E0899F90011124262B20937C020E940A
:103C3000171C80917C028595859585950C940E1EA8
:103C400010927C0280E00C940E1E20917C028095E4
:103C5000822380937C02982F977079F430E0482F6C
:103C6000082E000C550B2417350739F085958595DE
:103C700085950E94381C0C94201E089580E090E0E9
:103C80000E94DD2C21E08C3E9E4F09F020E0822F27
:103C9000089582E090E00C94CF2C682F82E090E0B1
:103CA0000C94E32C83E090E00C94CF2C682F83E0FD
:103CB00090E00C94E32CCF9384E090E00E94CF2C12
:103CC000C82F81E290E00E94CF2C2C2F30E0A90178
:103CD000582BCA01CF910895CF93C92F682F84E044
:103CE00090E00E94E32C6C2F81E290E0CF910C9445
:103CF000E32C86E090E00C94CF2C682F86E090E0D7
:103D00000C94E32CAB01BC018FE090E00C94F52CFB
:103D1000AB01BC0183E190E00C94F52C60E070E015
:103D2000CB010C94881E60E070E0CB010E94821EE3
:103D30000C948E1E6CEE7EEF80E090E00E94012DD0
:103D400060E082E090E00E94E32C60E083E090E09D
:103D50000E94E32C109278021092790210927A025B
:103D600010927B0260E084E090E00E94E32C60E02F
:103D700081E290E00E94E32C60E085E090E00E9408
:103D8000E32C60E086E090E00E94E32C6FEF87E098
:103D900090E00E94E32C40E050E0BA0188E090E01F
:103DA0000E94F52C60E08DE090E00E94E32C40E062
:103DB00050E0BA0188E190E00E94F52C60E087E1D4
:103DC00090E00E94E32C40E050E0BA018CE190E0EA
:103DD0000E94F52C60E080E290E00E94E32C0C94BD
:103DE000931E0C949A1E682F8EE090E00C94E32CA6
:103DF000FC01329680912A01882331F080910603DC
:103E000087FF02C09EE101C096E080E0915028F05B
:103E100021912223D9F38F5FF9CF0895662351F1C1
:103E200020912A012223E9F02091060327FF19C0DF
:103E3000462F4695469546954E31E0F4677021E051
:103E400030E002C0220F331F6A95E2F7FC01E40F55
:103E5000F11D828190E02823392381E0232B69F42E
:103E600009C0FC01329608962191621729F0E817E3
:103E7000F907D1F780E0089581E008959C01FC01E5
:103E800032969FEF80E04191461789F09F3F19F4E9
:103E9000411101C0982F8F5F8630A9F79F3F39F0FD
:103EA000F901E90FF11D97FDFA95628308950895D0
:103EB0009C012A5F3F4FFC014281461301C01282E0
:103EC000019682179307B9F70895262F2695269510
:103ED00026952E3168F4FC01E20FF11D677021E098
:103EE00030E001C0220F6A95EAF78281282B2283F5
:103EF0000895262F2695269526952E3170F4FC01DF
:103F0000E20FF11D677021E030E001C0220F6A95D9
:103F1000EAF72095828128232283089520912A019F
:103F2000222329F02091060327FD0C94651F0C9491
:103F30003E1F20912A01222329F02091060327FD0C
:103F40000C94791F0C94581F20912A01FC01329681
:103F5000222331F08091060387FF02C08EE101C069
:103F600086E0DF011D928A95E9F7089508950C9483
:103F7000B61F0C94B61FCF930E94B91F0E946F0604
:103F80000E94B71FC0E08C2F0E940606892B29F4DF
:103F9000CF5FC530C1F780E001C081E0CF910895C7
:103FA0000C94B61F0C94D01F0E94D21F80910C035A
:103FB000843061F11092A20220E488E190E00FB613
:103FC000F894A895809360000FBE2093600080E075
:103FD0000E949E0F80E00E9496030E94D21F83B72A
:103FE000817F846083BF83B7816083BF7894889525
:103FF00083B78E7F83BF0FB6F894A8958091600039
:10400000886180936000109260000FBE08950C9448
:10401000B61F0E94C1170E943E0E0E9467120E94A6
:1040200096030C9407201F920F920FB60F92112443
:104030008F939F93AF93BF938091A202811113C07E
:104040008091020390910303A0910403B0910503B2
:104050004196A11DB11D8093020390930303A09389
:104060000403B0930503BF91AF919F918F910F907F
:104070000FBE0F901F90189582E084BD93E095BD10
:104080009AEF97BD80936E0008952FB7F8948091B2
:10409000020390910303A0910403B09105032FBF85
:1040A00008959C014FB7F894809102039091030307
:1040B000A0910403B09105034FBF821B930B089599
:1040C00078941F920F920FB60F9211248F939F93A3
:1040D000AF93BF938091020390910303A0910403D7
:1040E000B09105030196A11DB11D80930203909329
:1040F0000303A0930403B0930503BF91AF919F9175
:104100008F910F900FBE0F901F90189581E08093B4
:10411000E00080E28093D8001092C9008FE19EE415
:104120000197F1F700C0000087E090EBDC0180937D
:10413000150390931603A0931703B09318039CE004
:1041400088E10FB6F894A895809360000FBE909315
:104150006000FFCFAF92BF92CF92DF92EF92FF92BB
:104160000F931F93CF93C0E0CC24C394D12CE82E9F
:10417000F12C8C2F0E9406065C0100E010E0C601C5
:10418000002E02C0880F991F0A94E2F78A219B2112
:10419000892B31F40F5F1F4F0E30110581F70AC0D4
:1041A000602F7C2F80E00E94FC03E816F90691F74F
:1041B00081E004C0CF5FC530E1F680E0CF911F9170
:1041C0000F91FF90EF90DF90CF90BF90AF90089548
:1041D000CF93C82F8CE20E94AA20882321F08C2F35
:1041E000CF910C94AA2080E0CF910895CF930E94A4
:1041F0003E1E811102C00E94F11EC5E6C15049F069
:104200000E946F068FE39CE90197F1F700C0000060
:10421000F5CF89E20E94E820811120C18AE20E9444
:10422000E82081110E94F11E85E00E94E8208111A2
:104230000E9486200E94491E8093A10287E00E946E
:10424000E8208823A9F18BE10E94E820882351F01F
:104250008091A10281FB222720F991E0922790FB17
:1042600081F90EC08EE00E94E820882361F08091E1
:10427000A10282FB222720F991E0922790FB82F98C
:104280008093A10215C080E10E94E8209091A102D4
:10429000882341F093FB222720F981E0822780FBCD
:1042A00093F904C0892F809580FB90F99093A10227
:1042B0008091A1020E944D1E0E945B1E90930703F5
:1042C0008093060380EE0E94E820882341F08091CD
:1042D0000603982F909590FB80F98093060389E35D
:1042E0000E94E820882359F08091060381FB222751
:1042F00020F991E0922790FB81F98093060382EEEA
:104300000E94E820882359F08091060382FB22272F
:1043100020F991E0922790FB82F98093060386EEC4
:104320000E94E820882359F08091060383FB22270E
:1043300020F991E0922790FB83F98093060383EEA6
:104340000E94E820882359F08091060384FB2227ED
:1043500020F991E0922790FB84F98093060385E38E
:104360000E94E820882359F08091060385FB2227CC
:1043700020F991E0922790FB85F98093060381E371
:104380000E94E820882359F08091060386FB2227AB
:1043900020F991E0922790FB86F98093060381E152
:1043A0000E94E820882359F08091060387FB22278A
:1043B00020F991E0922790FB87F980930603809182
:1043C0000603909107030E946C1E87E20E94E8207A
:1043D000C82F8EE10E94E8208111C2608FE10E9407
:1043E000E8208111C46080E20E94E8208111C86049
:1043F00081E20E94E8208111C06182E20E94E820EF
:104400008111C06283E20E94E8208111C06484E2CD
:104410000E94E820882311F0C06802C0CC2329F054
:104420008C2F0E94561E6C2F03C00E94521E682FB4
:1044300070E080E090E00E94B71B8FE00E94E820CF
:10444000882319F081E00E94F31E85E10E94E82094
:10445000882321F080E0CF910C94F31ECF91089532
:104460008091AA0280FF0BC060911D0185E0689FCA
:10447000B001112475956795759567952BC081FFDF
:1044800009C060911D0185E0689FB00111247595F8
:10449000679520C082FF07C060911D0185E0689F7D
:1044A000B001112417C09091A9029923D1F0609115
:1044B0001C01961788F720911D0185E0289F900127
:1044C0001124929FA001939F500D112470E0CA0106
:1044D0000E94102C6038710540F46115710519F4C3
:1044E00006C065E070E0862F08958FE7089581E0AB
:1044F00008958091AA0280FF08C06091190170E0C0
:10450000759567957595679521C081FF06C0609187
:10451000190170E07595679519C082FF04C060911C
:10452000190170E010C09091A902992399F060914F
:1045300018019617A0F780911901899FC0011124D5
:1045400070E00E94102C6038710540F4611571050F
:1045500019F406C061E070E0862F08958FE7089592
:1045600081E00895803F21F40E943022819504C0AB
:10457000813F29F40E9430228093AE020895823F49
:1045800021F40E943022819504C0833F29F40E94C7
:1045900030228093AD020895893F19F40E94792258
:1045A00005C08A3F31F40E94792281958093AF0241
:1045B00008958B3F21F40E947922819504C08C3F9D
:1045C00029F40E9479228093B0020895843F21F457
:1045D0008091AC02816017C0853F21F48091AC02CC
:1045E000826011C0863F21F48091AC0284600BC0D0
:1045F000873F21F48091AC02886005C0883F31F488
:104600008091AC0280618093AC0208958D3F21F4CB
:104610008091AA0281600BC08E3F21F48091AA0292
:10462000826005C08F3F29F48091AA028460809344
:10463000AA020895803F39F48091AE0287FF6CC0D2
:104640001092AE0269C0813F29F48091AE02181623
:10465000BCF362C09091AD02823F29F497FF5CC029
:104660001092AD0259C0833F19F41916CCF354C00F
:10467000893F41F48091AF0218160CF04DC01092A2
:10468000AF024AC08A3F29F48091AF0287FF44C03D
:10469000F6CF8B3F39F48091B00287FF3DC0109276
:1046A000B0023AC08C3F29F48091B0021816BCF3D6
:1046B00033C0843F21F48091AC028E7F17C0853FC8
:1046C00021F48091AC028D7F11C0863F21F480914E
:1046D000AC028B7F0BC0873F21F48091AC02877FB7
:1046E00005C0883F31F48091AC028F7E8093AC028C
:1046F00013C08D3F21F48091AA028E7F0BC08E3FA4
:1047000021F48091AA028D7F05C08F3F29F480910A
:10471000AA028B7F8093AA028091AD0281110EC004
:104720008091AE0281110AC08091AF02811106C052
:104730008091B002811102C01092A90208958BEA03
:1047400092E00E948D120E9445209093A8028093CF
:10475000A7020895CF93DF9300D000D000D0CDB74B
:10476000DEB786E0EBEAF2E0DE01119601900D92F1
:104770008A95E1F78091AD02811105C08091AE026A
:10478000882309F47AC08091A5029091A6020E9424
:104790005120AC019091A902992339F020911E017A
:1047A00030E02417350758F068C020911F018AE0D7
:1047B000289F900111242417350718F05EC09F3FF1
:1047C00019F09F5F9093A9021092AF021092B0026D
:1047D0008091AD02181624F40E9430228093AD021D
:1047E0008091AD0287FF05C00E94302281958093A1
:1047F000AD028091AE02181624F40E9430228093FC
:10480000AE028091AE0287FF05C00E9430228195E2
:104810008093AE023091AD023323E1F02091AE02DD
:104820002223C1F045EB3403C0011124992319F070
:104830009093AD0203C081E08093AD0235EB23037A
:10484000C0011124992319F09093AE0203C081E0B6
:104850008093AE020E949F238091A7029091A802AC
:104860009093A6028093A50286E0FE013196ABEA02
:10487000B2E001900D928A95E1F78091AF0281112B
:1048800005C08091B002882309F47AC08091A30208
:104890009091A4020E945120AC019091A902992309
:1048A00039F020911A0130E02417350758F068C01C
:1048B00020911B018AE0289F9001112424173507BD
:1048C00018F05EC09F3F19F09F5F9093A90210926D
:1048D000AD021092AE028091AF02181624F40E942D
:1048E00079228093AF028091AF0287FF05C00E94BA
:1048F000792281958093AF028091B002181624F43A
:104900000E9479228093B0028091B00287FF05C097
:104910000E94792281958093B0023091AF023323B7
:10492000E1F02091B0022223C1F045EB3403C00135
:104930001124992319F09093AF0203C081E0809372
:10494000AF0235EB2303C0011124992319F0909392
:10495000B00203C081E08093B0020E949F23809147
:10496000A7029091A8029093A4028093A30286E0EC
:10497000FE013196ABEAB2E001900D928A95E1F723
:1049800026960FB6F894DEBF0FBECDBFDF91CF9154
:104990000895EBEAF2E086E0DF011D928A95E9F7DF
:1049A0001092A9021092AA0208958091D10208954E
:1049B000CF93DF9300D01F92CDB7DEB790910C0359
:1049C000943019F589837B836A8382E08093E900C0
:1049D0008FEF9091E800815095FD06C095ED9A9576
:1049E000F1F700008111F5CF8091E80085FF0DC03F
:1049F00040E050E063E070E0CE0101960E94342771
:104A00008091E8008E778093E8000F900F900F90D0
:104A1000DF91CF910895CF93DF93EC010E94172788
:104A2000823011F0843031F4BE0184E0DF91CF9107
:104A30000C94D824DF91CF910895BC0183E00C94AD
:104A4000D824CF93DF93EC010E941727823011F016
:104A50008430F9F482E08093E9008FEF9091E800D0
:104A6000815095FD06C095ED9A95F1F700008111F2
:104A7000F5CF8091E80085FF0CC040E050E066E093
:104A800070E0CE010E9434278091E8008E778093F9
:104A9000E800DF91CF910895CF93DF93EC010E945E
:104AA0001727823011F08430D9F580912A018823AC
:104AB00039F08091060387FF03C060E282E002C004
:104AC00068E081E08093E9008FEF9091E8008150E9
:104AD00095FD06C095ED9A95F1F700008111F5CF8F
:104AE0008091E80085FF1CC080912A01811105C0DA
:104AF00040E050E068E070E003C070E040E050E06B
:104B0000CE010E9434278091E8008E778093E800E0
:104B100080E2FE01A1EBB2E001900D928A95E1F7EF
:104B2000DF91CF91089580910B03811109C00E94FC
:104B3000C5280E9422298091E20084608093E200CF
:104B4000089510920B030895089508950C94092078
:104B500042E061EC81E00E943E2842E261EC82E0AA
:104B60000C943E2880910E03833009F460C030F429
:104B7000813071F0823009F499C008958A3009F4C7
:104B800085C08B3009F46BC0893009F0A7C020C004
:104B900080910D03813A09F0A1C08091E800877FE0
:104BA0008093E8008091110390911203892B21F4E6
:104BB00060E281EB92E003C060E080E090E070E0B2
:104BC0000E947F278091E8008B778093E80008950A
:104BD00080910D03813209F081C080911103909181
:104BE0001203029708F07AC08091E800877F8093D3
:104BF000E8008091E80082FD05C080910C038111DE
:104C0000F8CF6CC02091F3008091F20090E0922BDD
:104C1000029729F48091F1008B7F813021F48091FB
:104C2000F1008093D1028091E8008B7753C080918E
:104C30000D03813A09F052C0809111039091120343
:104C4000892B09F04BC08091E800877F8093E800B2
:104C50008091E80080FFFCCF80912A0136C08091CE
:104C60000D038132D9F58091110390911203892BA4
:104C7000A9F58091E800877F8093E8000E9473285F
:104C800080910F0380932A010C94C11780910D032A
:104C9000813221F58091E800877F8093E8000E94AF
:104CA0007328809110038093D202089580910D03A0
:104CB000813AA1F48091E800877F8093E800809199
:104CC000E80080FFFCCF8091D2028093F1008091B8
:104CD000E8008E778093E8000C947328089584B7D9
:104CE000877F84BF0FB6F894A89580916000886193
:104CF00080936000109260000FBE90E080E80FB6D5
:104D0000F89480936100909361000FBE0E94D712C7
:104D10000E94C5280E9422298091E200846080932D
:104D2000E20078940E94B72B0E94E11280E291E0A9
:104D30000E94621280910C03853069F40E94D41F96
:104D400080910A038823B1F30E94BB1F882391F34B
:104D50000E941E27EFCF0E94ED12ECCF0C94B026DC
:104D6000292F332723303105C9F060F42130310574
:104D700081F02230310509F04AC08BE390E02EE744
:104D800034E049C02132310511F12232310579F187
:104D90003EC082E190E029EB34E03DC099278130AC
:104DA000910561F040F08230910559F0039779F553
:104DB000E6E5F4E008C0EAE7F4E005C0ECE6F4E07C
:104DC00002C0ECE5F4E0849190E09F0124C06115FD
:104DD000710541F061307105D1F489E090E029EA74
:104DE00034E019C089E090E020E934E014C0611596
:104DF000710541F06130710551F48CEB90E02BECC2
:104E000034E009C080E490E027E835E004C080E0A9
:104E100090E020E030E0FA01318320830895809112
:104E20000C03843011F081E0089582E008958091B0
:104E3000D302811102C00C940F27089580E189BD2F
:104E400082E189BD09B400FEFDCF8091D8008F7D3D
:104E50008093D8008091E00082608093E000809190
:104E6000E00081FDFCCF0895CF92DF92EF92FF9298
:104E70000F931F93CF93DF93EC018B017A010E9474
:104E80009228811133C0E114F10439F0F7018081D7
:104E90009181081B190BC80FD91FC12CD12C0115EA
:104EA000110519F18091E80085FD16C08091E80098
:104EB0008E778093E800E114F10449F0F7018081D6
:104EC0009181C80ED91ED182C08285E00FC00E9498
:104ED0009228882321F30AC089918093F100015020
:104EE0001109FFEFCF1ADF0ADACF80E0DF91CF910F
:104EF0001F910F91FF90EF90DF90CF900895209138
:104F00001303309114032617370748F06115710514
:104F100039F42091E8002E772093E80001C0B90110
:104F2000FC0120E06115710579F180910C03882363
:104F3000F1F18530F1F18091E80083FD3CC0809172
:104F4000E80082FD2EC08091E80080FFEBCF209129
:104F5000F3008091F20090E0922B6115710551F001
:104F60008830910538F421912093F1006150710946
:104F70000196F3CF21E0089709F020E08091E80046
:104F80008E778093E800CECF2111CFCF0AC08091D9
:104F90000C03882361F0853061F08091E80083FD87
:104FA0000AC08091E80082FFF2CF80E0089582E09D
:104FB000089583E0089581E00895209113033091CE
:104FC00014032617370748F06115710539F420914D
:104FD000E8002E772093E80001C0B901FC0120E031
:104FE0006115710591F180910C03882309F440C08B
:104FF000853009F43FC08091E80083FD3DC0809179
:10500000E80082FD2FC08091E80080FFE9CF209169
:10501000F3008091F20090E0922B6115710559F038
:105020008830910540F424912093F100319661502D
:1050300071090196F2CF21E0089709F020E08091F4
:10504000E8008E778093E800CBCF2111CCCF0AC047
:1050500080910C03882361F0853061F08091E80035
:1050600083FD0AC08091E80082FFF2CF80E00895BE
:1050700082E0089583E0089581E00895982F9730A5
:1050800068F59093E900981739F07091EC00209141
:10509000ED005091F00003C0242F762F50E021FD49
:1050A00002C09F5FECCF3091EB003E7F3093EB006E
:1050B0003091ED003D7F3093ED003091EB00316099
:1050C0003093EB007093EC002093ED005093F000D0
:1050D0002091EE0027FDE5CF80E008958F7080934A
:1050E000E90081E0089580910D0387FF11C0809150
:1050F000E80082FD05C080910C038111F8CF11C03A
:105100008091E8008B770BC080910C03882349F0D5
:105110008091E80080FFF8CF8091E8008E7780933F
:10512000E80008952091E4003091E50095E6409173
:10513000EC00842F817040FF23C08091E80080FD47
:105140001DC080910C03882399F0853099F08091DF
:10515000EB0085FD11C04091E4005091E50024175B
:10516000350729F3915011F09A01E1CF84E00895B9
:1051700082E0089583E0089581E0089580E0089535
:105180004091E80042FFDDCF08950E9433290E943C
:105190003B29E0EEF0E0808181608083E8EDF0E083
:1051A00080818F77808319BCA7EDB0E08C918E7FD2
:1051B0008C9380818F7E808310920B0308950F93D0
:1051C0001F93CF93DF930E9433290E943B29C8EDA0
:1051D000D0E088818F778883888180688883888100
:1051E0008F7D888319BC10920C03109208031092D3
:1051F0000A031092090300EE10E0F80180818B7F12
:10520000808388818160888342E060E080E00E9442
:105210003E28E1EEF0E080818E7F8083E2EEF0E0D8
:10522000808181608083808188608083F8018081B3
:105230008E7F8083888180618883DF91CF911F91E9
:105240000F910895E8EDF0E080818F7E8083E7ED97
:10525000F0E080818160808384E082BF81E0809380
:105260000B030C94DF28E8EDF0E080818E7F8083D3
:105270001092E20008951092DA001092E100089571
:105280001F920F920FB60F9211242F933F934F93BB
:105290005F936F937F938F939F93AF93BF93EF939E
:1052A000FF938091E10082FF0BC08091E20082FFBA
:1052B00007C08091E1008B7F8093E1000E94B62BB4
:1052C0008091DA0080FF1FC08091D80080FF1BC052
:1052D0008091DA008E7F8093DA008091D90080FF80
:1052E0000DC080E189BD82E189BD09B400FEFDCF1A
:1052F00081E080930C030E94932505C019BC109295
:105300000C030E94A1258091E10080FF19C08091CB
:10531000E20080FF15C08091E2008E7F8093E20062
:105320008091E20080618093E2008091D8008062E9
:105330008093D80019BC85E080930C030E94A525BA
:105340008091E10084FF30C08091E20084FF2CC096
:1053500080E189BD82E189BD09B400FEFDCF809165
:10536000D8008F7D8093D8008091E1008F7E80935C
:10537000E1008091E2008F7E8093E2008091E20064
:1053800081608093E20080910803882311F084E01B
:1053900007C08091E30087FD02C081E001C083E087
:1053A00080930C030E94A6258091E10083FF29C011
:1053B0008091E20083FF25C08091E100877F809388
:1053C000E10082E080930C03109208038091E100D9
:1053D0008E7F8093E1008091E2008E7F8093E200D7
:1053E0008091E20080618093E20042E060E080E032
:1053F0000E943E288091F00088608093F0000E9417
:10540000A425FF91EF91BF91AF919F918F917F91D3
:105410006F915F914F913F912F910F900FBE0F9021
:105420001F9018951F920F920FB60F9211242F9371
:105430003F934F935F936F937F938F939F93AF931C
:10544000BF93CF93DF93EF93FF93C091E900CF70A9
:105450008091EC00D82FD17080FDD0E81092E90047
:105460008091F000877F8093F00078940E94562A04
:105470001092E9008091F00088608093F000CD2BBD
:10548000CF70C093E900FF91EF91DF91CF91BF9171
:10549000AF919F918F917F916F915F914F913F91CC
:1054A0002F910F900FBE0F901F9018951F93CF93C1
:1054B000DF93CDB7DEB7AA970FB6F894DEBF0FBE65
:1054C000CDBFEDE0F3E08091F100819323E0E53181
:1054D000F207C9F70E94B2258091E80083FF2EC130
:1054E00080910D0390910E03492F50E04A305105F1
:1054F00008F024C1FA01E857FF4F0C94462C80387D
:1055000021F0823809F01AC108C0809109039091F6
:105510000A03992389F082600FC0809111038F7074
:10552000873008F00BC18093E9008091EB0085FB88
:10553000882780F91092E9009091E800977F909376
:10554000E8008093F1001092F100D1C0282F2D7F48
:1055500009F0F4C0882319F0823061F0EFC0809127
:105560000F03813009F0EAC0933009F080E08093A6
:105570000A032EC080910F0381112AC0809111036C
:105580008F702FEF280F263008F0D8C08093E900E5
:105590002091EB0020FF1CC0933021F48091EB00A0
:1055A000806214C09091EB0090619093EB0021E039
:1055B00030E0A90102C0440F551F8A95E2F74093DD
:1055C000EA001092EA008091EB0088608093EB0083
:1055D0001092E9008091E800877F8093E8000E94A4
:1055E0007328ACC08111AAC010910F031F7780915E
:1055F000E3008078812B8093E3008091E800877F2F
:105600008093E8000E9473288091E80080FFFCCF1F
:105610008091E30080688093E300111102C082E072
:1056200001C083E080930C0389C08058823008F069
:1056300085C080910F03909110038C3D53E0950736
:1056400079F583E08A838AE289834FB7F894DE0193
:10565000139620E03EE051E2E32FF0E05093570034
:10566000E49120FF03C0E295EF703F5FEF708E2F53
:1056700090E0EA3010F0C79601C0C0968D939D93DC
:105680002F5F243149F74FBF8091E800877F8093D7
:10569000E8006AE270E0CE0101960E947F2716C002
:1056A0006091110370911203AE014F5F5F4F0E9432
:1056B000AE26BC01892B09F441C09091E800977F88
:1056C0009093E80089819A810E94DD278091E8000B
:1056D0008B778093E80032C0803881F58091E800B4
:1056E000877F8093E800809108038093F100809188
:1056F000E8008E7772CF811121C080910F039091C5
:10570000100399270297D4F48091E800877F809353
:10571000E80080910F03809308030E947328809112
:105720000803811106C08091E30087FD02C081E07B
:1057300001C084E080930C030E94A8258091E800BA
:1057400083FF0AC08091E800877F8093E800809102
:10575000EB0080628093EB00AA960FB6F894DEBF50
:105760000FBECDBFDF91CF911F9108950895CF93C4
:1057700080910C038823A1F0C091E900CF70909133
:10578000EC00892F817090FD80E8C82B1092E90011
:105790008091E80083FD0E94562ACF70C093E900F3
:1057A000CF910895DB018F939F930E945B2CBF9153
:1057B000AF91A29F800D911DA39F900DB29F900D60
:1057C00011240895991B79E004C0991F961708F0D9
:1057D000961B881F7A95C9F78095089587FB082E38
:1057E000062687FD819567FD61950E94E22B0EF4E8
:1057F000919507FC81950895AA1BBB1B51E107C039
:10580000AA1FBB1FA617B70710F0A61BB70B881F50
:10581000991F5A95A9F780959095BC01CD010895DF
:1058200097FB072E16F4009407D077FD09D00E944D
:10583000FC2B07FC05D03EF4909581959F4F089571
:10584000709561957F4F0895A1E21A2EAA1BBB1B8C
:10585000FD010DC0AA1FBB1FEE1FFF1FA217B3073C
:10586000E407F50720F0A21BB30BE40BF50B661F52
:10587000771F881F991F1A9469F760957095809516
:1058800090959B01AC01BD01CF010895EE0FFF1F64
:105890000590F491E02D0994A29FB001B39FC0013F
:1058A000A39F700D811D1124911DB29F700D811D4C
:1058B0001124911D08950E944C2CA59F900DB49F1A
:1058C000900DA49F800D911D112408958F929F9299
:1058D000AF92BF92CF92DF92EF92FF92CF93DF937E
:1058E000EC01688179818A819B816115710581054F
:1058F000910521F464E279ED8BE597E02DE133EF3A
:1059000041E050E00E94172D49015A019B01AC0172
:10591000A7EAB1E40E945B2C6B017C01ACEEB4EF12
:10592000A50194010E94392DDC01CB018C0D9D1D38
:10593000AE1DBF1DB7FF03C00197A109B048888302
:105940009983AA83BB839F77DF91CF91FF90EF90DC
:10595000DF90CF90BF90AF909F908F9008950E945E
:10596000662C089580E091E00E94662C0895A0E0E6
:10597000B0E08093000190930101A0930201B093E5
:1059800003010895FC014150504030F0019006168B
:10599000D1F73197CF010895882799270895F9996C
:1059A000FECF92BD81BDF89A992780B50895A6E1F2
:1059B000B0E044E050E00C94092DA8E1B0E042E0F2
:1059C00050E00C94092D262FF999FECF92BD81BD90
:1059D000F89A019700B4021639F01FBA20BD0FB62D
:1059E000F894FA9AF99A0FBE08950396272F0E9409
:1059F000E42C0E94E32C252F0E94E42C242F0C94ED
:105A0000E42C0196272F0E94E42C0C94E32CDC015B
:105A1000CB01FC01F999FECF06C0F2BDE1BDF89AB9
:105A2000319600B40D9241505040B8F70895052EBC
:105A300097FB1EF400940E942E2D57FD07D00E9464
:105A4000242C07FC03D04EF40C942E2D5095409539
:105A5000309521953F4F4F4F5F4F0895909580951A
:105A6000709561957F4F8F4F9F4F0895B7FF0C94AE
:105A70005B2C0E945B2C821B930B0895F894FFCF44
:105A8000010000000102000600060601191A1B1C95
:105A90001D1E1F2021227E022808641E140A321EA9
:105AA000D5244C2521251D250B2501E200E900EA1E
:105AB00000B500B600B700CD008301CC008A01928A
:105AC0000194012102230224022502260227022A30
:105AD00002B300B4006F007000818283F0F1C667EA
