:100000000C94E6020C942D030C942D030C942D03F8
:100010000C942D030C942D030C942D030C942D03A0
:100020000C942D030C942D030C9442290C94142A47
:100030000C9415200C942D030C942D030C942D037B
:100040000C942D030C94510F0C942D030C942D0340
:100050000C94750F0C9462200C942D030C942D03BA
:100060000C942D030C942D030C942D030C942D0350
:100070000C942D030C942D030C942D030C942D0340
:100080000C942D030C942D030C942D030C942D0330
:100090000C942D030C942D030C942D030C942D0320
:1000A0000C942D030C942D030C942D03E60DE90DF7
:1000B000F10DF60DFB0D000E050E0A0E0F0E140EBF
:1000C000190E1E0E200E230E260E290E2C0E2F0E9C
:1000D000310E360E4015401572157215BF15DD151F
:1000E000351735171F16B416C516C516251735173B
:1000F00035172E17D517D517E717E717DE17E717A8
:10010000E717E717D517D517E317E717E717E3172B
:10011000812AA82AA02BA82AA02BF42A172BA02BCF
:100120006E2B7D2B29001E001F00200021002200C5
:10013000230024002500260027002D002E0031007A
:100140002B0014001A000800150017001C001800EE
:100150000C00120013002F0030004C003900040086
:100160001600070009000A000B000D000E000F002A
:100170003300340000002800E10000001D001B00D7
:100180000600190005001100100036003700380085
:1001900001585200E000E300E200000000002C41A2
:1001A0000000E50050002A00E700E40051004F0085
:1001B00035003A003B003C003D003E003F0040005F
:1001C00041004200430044004500000000000000E0
:1001D0000000520000000000000000004600470040
:1001E0004800000000000000000000005000510026
:1001F0004F000000000049004A004B002A000000A8
:100200000000000001000000AA00A900A8000000F2
:10021000000000004C004D004E00010001000000F5
:100220000100010001000000000001000000C25CAC
:10023000C35C0000010001000000C45C32190A0028
:10024000047F3F1F643214643214783C1E1E140A6B
:10025000052223252628292A2C2D2F303233353606
:10026000383A3B3D3E4042434547494A4C4E505147
:10027000535557595A5C5E6062646668696B6D6F6E
:1002800071737577797B7D7F81838587898A8C8E71
:1002900090929496989A9C9E9FA1A3A5A7A8AAAC79
:1002A000AEAFB1B3B4B6B8B9BBBCBEBFC1C2C3C5B3
:1002B000C6C7C9CACBCCCDCED0D1D2D2D3D4D5D655
:1002C000D7D7D8D9D9DADADBDBDBDCDCDCDCDCDD88
:1002D000DDDDDDDCDCDCDCDCDBDBDBDADAD9D9D86C
:1002E000D7D7D6D5D4D3D2D2D1D0CECDCCCBCAC904
:1002F000C7C6C5C3C2C1BFBEBCBBB9B8B6B4B3B133
:10030000AFAEACAAA8A7A5A3A19F9E9C9A989694CD
:1003100092908E8C8A89878583817F7D7B797775A2
:1003200073716F6D6B6968666462605E5C5A595781
:10033000555351504E4C4A4947454342403E3D3B40
:100340003A3836353332302F2D2C2A2928262523CA
:1003500022FFAA7F554000010101010101010101B5
:100360000202020202020202020303030303030366
:100370000304040404040404050505050506060633
:100380000606070707070708080808090909090AF0
:100390000A0A0B0B0B0C0C0C0D0D0D0E0E0E0F0F95
:1003A0000F10101111111212131314141515161623
:1003B0001717181819191A1A1B1B1C1D1D1E1E1F92
:1003C0002020212222232424252626272829292AE1
:1003D0002B2C2D2D2E2F3031323233343536373809
:1003E000393A3B3C3D3E3F40414243444546474805
:1003F000494A4C4D4E4F50515354555658595A5BDB
:100400005D5E5F616264656668696B6C6D6F70727A
:10041000737577787A7B7D7E8082838587888A8CE6
:100420008E8F91939596989A9C9EA0A2A3A5A7A91A
:10043000ABADAFB1B3B5B7BABCBEC0C2C4C6C9CB11
:10044000CDCFD1D4D6D8DBDDDFE2E4E7E9EBEEF0C7
:10045000F3F5F8FAFDFF0403300000001203580022
:100460004400360030007200650076003300000062
:100470000C035800490055004400490000000403E3
:10048000090409023B00020100A0FA09040000016E
:10049000030101000921110100012240000705812B
:1004A0000308000A090401000103000000092111EA
:1004B00001000122BC000705820320000A1201107E
:1004C0000100000008EDFE63630100010203010565
:1004D000010902A10185020901A1000509190129EB
:1004E00005150025019505750181029501750381AA
:1004F000010501093009311581257F9502750881B3
:100500000609381581257F950175088106050C0AB5
:1005100038021581257F950175088106C0C0050147
:100520000980A101850319012AB700150126B7002A
:10053000950175108100C0050C0901A10185041900
:10054000012AA002150126A002950175108100C0A4
:1005500005010906A1018505050719E029E7150030
:1005600025019508750181020507190029EF15007D
:10057000250195F0750181020508190129059505E8
:1005800075019102950175039101C005010906A14C
:1005900001050719E029E715002501950875018176
:1005A000029501750881010507190029FF1500262C
:1005B000FF009506750881000508190129059505B4
:1005C00075019102950175039101C00011241FBEB0
:1005D000CFEFDAE0DEBFCDBF04B603FE27C08091C7
:1005E000450390914603A0914703B091480387309B
:1005F000904BA740B04BD1F41092450310924603A4
:10060000109247031092480314BE84B7877F84BFBB
:100610000FB6F894A895809160008861809360007F
:10062000109260000FBEE0E0F8E3099511E0A0E051
:10063000B1E0E4E8FAE502C005900D92AC3CB107E8
:10064000D9F723E0ACECB1E001C01D92A534B207AC
:10065000E1F70E9471260C94402D0C94000081FF5C
:1006600002C0229A01C022982A980C94930381E038
:10067000089581E008950C94390308950C943D0386
:100680001F93CF93DF9300D000D01F92CDB7DEB77A
:1006900049835A836B8330912C0289819A8131116D
:1006A00014C0662359F0222349F00E940E1D182F12
:1006B000682F89819A810E94B71C03C00E94E21CA6
:1006C000182F69817A81812F04C00E940E1D6981D3
:1006D0007A810F900F900F900F900F90DF91CF9134
:1006E0001F910C94FE03FC01262F408151816281F1
:1006F000738184810C944003CF93DF93EC0160E01D
:100700000E947303BE01DF91CF910C943E030E94BF
:10071000401E811102C00E94F31E0E9418100C940A
:100720001D060C941906089581E008950C94940315
:10073000CF93C82F0E942F038C2F0E949603CF9136
:10074000089508950E94C3170E94A1032FEF84E328
:100750009CE0215080409040E1F700C000000C94E4
:1007600088200F931F93CF93DF93EC0161E00E94E9
:1007700073038C01BE010E943B038823A9F1BE01D3
:10078000C8010E941A0F882379F1BE01C8010E9496
:10079000C710882349F1BE01C8010E9408118823AF
:1007A00019F1BE01C8010E9433128823E9F0BE018D
:1007B000C8010E94CF0D8823B9F08A81882369F08F
:1007C00001158CE5180731F00E3D1C4531F40E94EF
:1007D000F31E0AC00E94A20307C0CE01DF91CF9191
:1007E0001F910F910C94370380E0DF91CF911F91FF
:1007F0000F91089580E090E00895089526E4829F87
:10080000C0011124FC012EE0729FE00DF11D1124A6
:10081000E60FF11DEE0FFF1FEC5DFE4F85919491E9
:100820000895880F991FFC01E45CFD4F8591949118
:100830000895CF93DF930E94FE030E943105EC01DF
:100840008115904508F041C0C11580E4D80708F033
:10085000D1C0C83ED10510F5C03ED10508F0FDC09D
:10086000C83AD10578F4C53AD10508F0A2C0C13024
:10087000D10509F4F2C008F4EEC0C430D10508F087
:10088000ECC0E9C0CF3BD10508F49BC0C03CD1050A
:1008900008F4E1C0CE01805C91099EC0C11590E2D0
:1008A000D90758F4C11521E0D20708F0D6C0C03FDF
:1008B000D10508F4D0C0D065D0C0C11580E3D807F9
:1008C00008F08EC0CE019F7087C0C11595E5D9078D
:1008D00008F043C0C11524E5D20708F0A2C0C11535
:1008E00082E5D80708F5C11591E5D90708F085C05C
:1008F000CE0174E0969587957A95E1F783709C2FE9
:10090000937021E030E002C0220F331F9A95E2F786
:100910003C68382BCF70C695C69580E2C89FE00131
:100920001124C22BD32B99C09E01237033278C2F07
:1009300086958695C115D34508F064C0C1E0D0E026
:1009400002C0CC0FDD1F2A95E2F720E2829FC00192
:100950001124C82BD92BDC6880C0C11529E5D2072A
:10096000A0F4C11588E5D80708F060C0C11596E568
:10097000D90708F070C08C2F0E94C5058F71C82F51
:10098000D0E0DC2FCC27D06268C0C1152AE5D207A1
:1009900008F451C0CE0190568115904208F05BC01A
:1009A0008D2F8F710E94C505DD27D0628F71D82BE6
:1009B00054C0C55AD0E0C75ADE4FC881D0E0D064D9
:1009C0004CC0C85AD0E0CC0FDD1FC55DDE4F09908A
:1009D000D881C02DD46441C00E941104EC013DC0F7
:1009E000CE019927D3FF03C0EC01D86C36C0EC01CF
:1009F000D06C33C0DF70D06A30C0DC2FCC27C16F21
:100A0000D06A2BC0C1E0D0E002C0CC0FDD1F2A9518
:100A1000E2F720E2829FC0011124C82BD92BDA68AB
:100A20001CC0DC2FCC27C46FD06A17C0DC2FCC27AA
:100A3000C06FD06A12C08C2F8F700E94C50594E0E1
:100A4000D695C7959A95E1F7CF70D0E0DC2FCC27EB
:100A5000D069C82B02C0C0E0D0E0CE01DF91CF91B9
:100A600008958238910569F1B0F48133910509F454
:100A70006DC048F48932910509F463C08A3291054A
:100A800009F469C008958533910509F455C0893387
:100A90009105B9F00895833E910569F138F4803EDF
:100AA0009105B1F0823E910509F10895863E9105C8
:100AB000A9F1873E9105B9F1843E910509F064C022
:100AC00023C02091360320FD4FC021FD4DC0089565
:100AD0008091360380FD44C08091370380FF44C07D
:100AE0008091360384FD42C083EE4DC08091360371
:100AF00082FF38C0F5CF8091360382FD33C08091EC
:100B0000370380FD31C0ECCF8091370381FF32C0C5
:100B10008091360384FD2AC087EE35C0809136036C
:100B200083FF26C0F5CF8091360383FD21C08091DD
:100B3000370381FD1FC0ECCF8091360385FD1CC0BB
:100B40001DC08091360385FD19C016C08091360303
:100B500086FD16C017C08091360386FD13C010C0F5
:100B600089E311C082EE0FC080EE0DC080E00BC0A3
:100B700086EE09C084EE07C089E205C085E303C0A4
:100B80008AE201C081E390E008959091360392FFDC
:100B90000DC0282F2871283019F4877F846006C083
:100BA000282F2471243011F48B7F886093FF0DC0AF
:100BB000282F2871283119F4877E846106C0282FD8
:100BC0002471243111F48B7E88612091370320FF3A
:100BD0000DC0382F3871383019F4877F816006C016
:100BE000382F3171313011F48E7F886021FF0DC0B4
:100BF000282F2871283119F4877E816106C0282F9B
:100C00002171213111F48E7E886194FD877E0895D3
:100C1000E82FF0E0EE0FFF1FE450FD4F808191813F
:100C20000895089580EA8A95F1F7089508950C943F
:100C300016060C9417060C9416060C941B06CF93FC
:100C4000DF93AAE6B1E04FE651E061E070E08D91FC
:100C5000E82FE295EF70F0E021A18F70EB0102C068
:100C6000CC0FDD1F8A95E2F7CE019C2F9095922341
:100C700091A392A1892B82A34A175B0741F7ACE5A8
:100C8000B1E04AE651E061E070E08D91E82FE29535
:100C9000EF70F0E021A18F70EB0102C0CC0FDD1FDF
:100CA0008A95E2F7CE019C2F9095922391A392A171
:100CB000892B82A34A175B0741F7E2EFF2E0ACEF22
:100CC000B2E08CEF92E0119211921D921D928E175C
:100CD0009F07C9F785E00E94FE06DF91CF910C9433
:100CE00087036F927F928F929F92AF92BF92CF9223
:100CF000DF92EF92FF920F931F93CF93DF938AE6D9
:100D0000C82E81E0D82E02EF12E09CEFA92E92E0CF
:100D1000B92E712C88248394912CF60181916F0156
:100D2000C82FC295CF70D0E099A18F70740101C017
:100D3000EE0C8A95EAF7892F8E2989A38AA16E2C59
:100D4000609486218AA30E941206ECE5F1E040E05F
:100D500050E020E030E06191A62FA295AF70B0E0A6
:100D600090968C9190E06F7002C0959587956A95EA
:100D7000E2F780FD08C0C401042E02C0880F991F4D
:100D80000A94E2F702C080E090E0282B392B4F5FF5
:100D90005F4F4E305105F9F689A1682269A28AA1F8
:100DA000E82AEAA2F801808191812817390721F009
:100DB0003183208381E001C080E0782A0E5F1F4FDD
:100DC000A016B10609F0A9CF272D45E06CEF72E01F
:100DD00082EF92E00E94FF060E949103872DDF912F
:100DE000CF911F910F91FF90EF90DF90CF90BF9028
:100DF000AF909F908F907F906F9008950895FF928D
:100E00000F931F93CF93DF93F82E092F162FD72F11
:100E1000C42F222349F081E08093CE010E94472015
:100E20009093CD018093CC018091CE018823D9F09D
:100E30008091CC019091CD010E945320069798F0AB
:100E4000EF2DF02FA12FBD2F80E090E04C2F50E030
:100E50008417950734F4219131912D933D93019698
:100E6000F7CF1092CE01DF91CF911F910F91FF909C
:100E70000895EF92FF920F931F93CF93DF93F62E77
:100E8000472FE82FF0E0711106C0EA5AFC4F649139
:100E9000762F862F72C0272F30E0EA5AFC4FE4915C
:100EA0000E2F10E056E0659FC0011124CFEFD0E077
:100EB000BE010E94FE2B5BEA5603C001579F900DB6
:100EC00011248F0D911D8F0D911D982F990F890F52
:100ED0007E01E21AF30AE09ED001E19EB00DF09E81
:100EE000B00D1124489FA0011124452F55277E01E4
:100EF000E41AF50AE09EA001E19E500DF09E500D0F
:100F000011247E01E81AF108E29EC001E39E900DD3
:100F1000F29E900D1124892F9927C81BD90BC09FD1
:100F2000C001C19F900DD09F900D112462307105BA
:100F300091F048F461157105E1F061307105A9F493
:100F40008B2F752F19C06430710561F038F0663051
:100F5000710579F00AC0892F7B2F0EC08E2F7B2F51
:100F6000E52F0AC08E2F792F02C0852F7E2FEB2F01
:100F700003C08B2F7E2FE92F6E2FDF91CF911F9112
:100F80000F91FF90EF9008950895CF93DF93762F00
:100F9000E901682F842F0E943907798368838A8347
:100FA000DF91CF91089580910603282F269530E098
:100FB0002115310519F48170826005C02B3231058D
:100FC00024F08170846580930603089588E090E0A2
:100FD0000C94D92CCF92DF92EF92FF926B017C019F
:100FE0000E94D307B701A60188E090E0FF90EF9040
:100FF000DF90CF900C94F72CE6E0F3E083E0808361
:1010000011828FEF82838383148260817181828158
:1010100093810C94EA078091060380FF02C08695B5
:10102000089580E0089580910A03833018F48F5F5B
:1010300080930A036091060370910703809108036F
:10104000909109030C94EA0780910A03882319F010
:10105000815080930A036091060370910703809189
:101060000803909109030C94EA0770E00C9428108F
:10107000609107018091060380FF0AC080910601FC
:1010800023E0829FC0011124855F9C4F0C9435089A
:101090008091080190910901891780F7E82FF0E00D
:1010A0009F01220F331FE20FF31FE55FFC4F1182F8
:1010B000108212828F5FF0CF9091060390FF16C0CE
:1010C0009091080120910901921770F4E92FF0E046
:1010D000DF01AA0FBB1FEA0FFB1FE55FFC4F8183F7
:1010E000608342839F5FF0CF0C9438080895CF93BC
:1010F000DF9300D01F92CDB7DEB79091060390FF2B
:101100000AC09E012F5F3F4F0E94C5074B81698136
:101110008A810E945C080F900F900F90DF91CF9111
:101120000895CF93DF93EC01EC81F0E0EF5AFD4F8F
:101130004491E6E0F3E0628181810E9477088C812E
:101140008F5F8C83DF91CF910895CF93DF93EC0174
:10115000E6E0F3E0438162818C810E9477088C8114
:101160008F5F8C83DF91CF9108950F931F93CF935F
:10117000DF9300D01F92CDB7DEB78C018091CF01F5
:1011800081110AC09E012F5F3F4F4FEF6FEF0E940A
:10119000C5078A818093CF01F8018481813051F0A5
:1011A00028F0823061F44091CF010AC08091CF01D4
:1011B00040E007C06091CF0140E080E003C040E024
:1011C00080E060E00E945C08F801848190E0019674
:1011D00063E070E00E94122C84830F900F900F90B8
:1011E000DF91CF911F910F910895AF92BF92CF924F
:1011F000DF92EF92FF920F931F93CF93DF9300D074
:101200001F92CDB7DEB7182FF62E042FE22E909145
:10121000060390FF6DC0E92FE695AE2FB0E0A1590F
:10122000BE4F8C91809315029E7F923061F49E0197
:101230002F5F3F4F812F0E94C5074B8169818A81B3
:101240000E945C0843C0823019F4009109033EC03B
:10125000863019F41091070339C08930D9F38931E8
:10126000A9F5E9518E2F8170D82EE695F0E0EF5A5E
:10127000FC4FA590B490C12CBB2460910A01C61606
:1012800018F52C2D30E0A29EC001A39E900DB29EB9
:10129000900D112470E00E94FE2B812FD11002C00E
:1012A000860F01C0861B90910801290F311DA901ED
:1012B000440F551F240F351F255F3C4F402F6F2DC6
:1012C0000E94C507C394D9CF0E9438081093070322
:1012D000F092080300930903EE2051F06091060399
:1012E0007091070380910803909109030E94EA0717
:1012F0000F900F900F90DF91CF911F910F91FF9062
:10130000EF90DF90CF90BF90AF900895E6E0F3E0CC
:101310009181282F438162818AE0890F0C94F5081E
:1013200081E00C948609E6E0F3E09181282F438167
:10133000628186EF890F0C94F50881E00C94930983
:10134000E6E0F3E0628121E1620F08F46FEF282FFD
:10135000438181810C94F50881E00C94A009E6E0BA
:10136000F3E0628121E1621B08F460E0282F4381F1
:1013700081810C94F50881E00C94AF09E6E0F3E07C
:10138000438121E1420F08F44FEF282F62818181D0
:101390000C94F50881E00C94BE09E6E0F3E043818B
:1013A00021E1421B08F440E0282F628181810C94E6
:1013B000F50881E00C94CD0920E00C94F508FF922B
:1013C0000F931F93CF93DF93EC01F12C0FEF10E0FD
:1013D00060910A01F616F0F4809108012F2D30E09B
:1013E000280F311DC901880F991F280F391F255F4C
:1013F0003C4F70E0C8010E94122C962F8C814091C6
:10140000090360910803F99E800D11240E94C5070D
:10141000F394DECF0E9438089A818C8190FF02C03D
:101420008F5F01C081508C83DF91CF911F910F910D
:10143000FF900895AF92BF92CF92DF92EF92FF920A
:101440000F931F93CF93DF93FC01828180FF02C033
:101450000FEF01C001E010E04CE0A42E80910A01E2
:10146000181708F043C080910801C12ED12CE60165
:10147000C80FD11DCE01880F991FC80FD91FC55F96
:10148000DC4F198218821A8234E0E32EF12CB12C41
:101490008091D1018B0D8D302CF06A2D0E94F02BA4
:1014A000892F05C087FF03C090910A01890F082E7C
:1014B000000C990BC816D90691F4809109038E9DF2
:1014C000A0018F9D500D1124559547955595479531
:1014D0009E0160910803809107030E94C507B00E2A
:1014E000F1E0EF1AF108A1F61F5FB8CF0E943808AB
:1014F0008091D101013031F4811102C080910A0143
:10150000815007C090E0019660910A0170E00E944E
:10151000122C8093D101DF91CF911F910F91FF90F9
:10152000EF90DF90CF90BF90AF900895CF938091D0
:10153000080190910901891770F4E82FF0E09F01EC
:10154000220F331FE20FF31FE55FFC4F1182108261
:1015500012828F5FF0CFC0E060910A01C617C0F51C
:10156000EC2FF0E070E0CF010E94122C20910801D6
:10157000820F2091D001022E000C330B90E0E21775
:10158000F307CCF020910501022E000C330B2E172F
:101590003F078CF09C01220F331F820F931F9C0189
:1015A000255F3C4F40910903609108038091070338
:1015B0000E94C5070BC0FC01EE0FFF1F8E0F9F1F7F
:1015C000FC01E55FFC4F118210821282CF5FC4CF15
:1015D0000E943808209104018091D001820F8093ED
:1015E000D00190910501920F9093050119165CF4BA
:1015F000082E000C990B40910A0150E0415051090E
:10160000841795071CF0219520930401CF9108952C
:101610000F931F93CF93DF938C01FC0184819581FD
:1016200001968170992795838483C0E0D5E58091E8
:101630000A01C81700F5809108012C2F30E0280F0F
:10164000311DC901880F991F280F391F255F3C4F95
:101650004C2F4695F80184819581840F911D8170EE
:1016600040910903609108038D9F802D11240E94F1
:10167000C507CF5FDCCFDF91CF911F910F910C9405
:1016800038080F931F93CF93DF93EC0100E010E035
:1016900080910A01282F30E00217130724F590915A
:1016A00008019801290F311DA901440F551F240F6E
:1016B000351F255F3C4F869590E04C810817190730
:1016C0001CF4442331F002C0411103C040910903CE
:1016D00001C040E060910803809107030E94C507A4
:1016E0000F5F1F4FD5CF0E9438088C8190E0019684
:1016F000817099278C83DF91CF911F910F9108956D
:101700008F929F92AF92BF92CF92DF92EF92FF9211
:101710000F931F93CF93DF93FC01B280948081E0FD
:10172000848300E015E05BE4A52E88248394EE24F6
:10173000EA94F12C7BE4C72ED12C80910A01081782
:1017400008F08FC0C02FD0E01C9FF0011D9FF00D4E
:101750001124EE52FE4F911003C01382128267C013
:101760002381222389F1215023833481332319F0EB
:101770009A2D921B01C0922F809109031C9FF001AA
:101780001D9FF00D1124EE52FE4F899FC0011124C0
:10179000B6010E94FE2B6283211104C0332311F095
:1017A0001482A38222E02B1508F441C01C9FF00193
:1017B0001D9FF00D1124EE52FE4F80910703808390
:1017C00080910803818333C00E94B42C8230914001
:1017D00074F582E08B1530F40E94B42CB7010E949E
:1017E000122C02C0809107031C9FF0011D9FF00D79
:1017F0001124EE52FE4F808322E02B1558F40E94F4
:10180000B42C209108032695622F70E00E94122CC0
:10181000820F02C0809108031C9FF0011D9FF00DF4
:101820001124EE52FE4F81831282A3828482809122
:1018300008019E01280F311DC901880F991F280F2B
:10184000391F255F3C4F1C9FF0011D9FF00D112497
:10185000EE52FE4F4281618180810E94C5070F5F79
:101860006CCFDF91CF911F910F91FF90EF90DF90A0
:10187000CF90BF90AF909F908F900C943808E6E087
:10188000F3E080818E7F808360817181828193818A
:101890000E94EA07109216022FEF80E792E0215093
:1018A00080409040E1F700C000000C94380860913F
:1018B0000603669570E04BE050E08BE091E00E94FB
:1018C000C42C892B19F481E0809316020E944720D2
:1018D00090930F0280930E0208959091060390FF5B
:1018E00035C09170811102C0926006C08B3210F039
:1018F000946502C0880F982B90930603662351F0DD
:101900006091060370910703809108039091090389
:101910000E94EA0760910603669570E04BE050E094
:101920008BE091E00E94C42C892B19F010921602D2
:1019300002C00E94570C81E080931102409109037C
:1019400060910803809107030C94DC090895682FC7
:1019500090910603969581E0890F8B3208F081E023
:101960000C946D0C81E00C94A70C682F90910603E9
:1019700096958FEF890F09F48AE20C946D0C81E043
:101980000C94B50C61E00C946D0CE6E0F3E0808102
:101990008160808386950C94C20C8091060380FD43
:1019A0000C943F0C0C94C50C60E00C946D0C809171
:1019B000140281112EC00E94401E811104C00E9499
:1019C000F31E0E94FC070E94E607609306037093D3
:1019D000070380930803909309036E7F61F40E94CC
:1019E000FC070E94E6076093060370930703809349
:1019F0000803909309030E94D30710921602809166
:101A0000060380FF03C086950E94D40C81E080937A
:101A1000140208950F931F93CF93DF9380911602C2
:101A2000882309F49CC080911502E0910603E69595
:101A3000E81BE0931002823049F4F0E0E35BFD4FD5
:101A4000E491CE2FD0E001E918E059C0863049F486
:101A5000F0E0E65BFD4FE491CE2FD0E005EA18E020
:101A60004EC0893051F4E695F0E0E95BFD4FE4911A
:101A7000CE2FD0E00FED19E042C08F3051F4E69543
:101A8000F0E0EC5BFD4FE491CE2FD0E00AE11AE0EC
:101A900036C0853149F4F0E0EF5BFD4FE491CE2F85
:101AA000D0E006E91AE02BC08831D9F0833239F44E
:101AB000EFE3F2E0C591D49105EB18E020C0843249
:101AC000A9F08532C1F48E2F63E00E94E42BE92F48
:101AD000F0E0E45CFD4FE491CE2FD0E000E81BE0A5
:101AE0000EC0C8EED3E008E01BE009C0C4EFD1E0AF
:101AF00001E41BE004C0C0EDD7E004EC17E08091E6
:101B00001102882389F0109211020E9447209E0141
:101B100020953095820F931F90930F0280930E02B1
:101B2000109213021092120280910E0290910F02F5
:101B30000E9453208C179D0790F0E0910E02F091C7
:101B40000F02CE0FDF1FD0930F02C0930E028EE064
:101B500092E0F801DF91CF911F910F910994DF91ED
:101B6000CF911F910F910895882311F0FA0101C0C0
:101B7000FB010994CF93DF93C82FD62F0E940B0847
:101B80008C1740F00E940B088D1720F4DF91CF9145
:101B90000C94B20C8C2FDF91CF910C94C20C0F934C
:101BA0001F93CF93FB01C281CC2309F463C08C0146
:101BB0000E948F1D8272F801E25CFC45E431F10560
:101BC00008F059C0EA5AFF4F0C94482C0E94CD0CE3
:101BD00006C04FEB5CE062EB7CE00E94B40DC0E01D
:101BE0004AC042EB5CE06FEB7CE0F7CF4DE959E097
:101BF00060E979E0F2CF40E959E06DE979E0EDCFB5
:101C00004BEB59E06CEA79E0E8CF4CEA59E06BEB3A
:101C100079E0E3CF49ED59E06AEC79E0DECF4AECB8
:101C200059E069ED79E0D9CF44E258E063E178E02A
:101C3000D4CF43E158E064E278E0CFCF81E017C031
:101C400065E082E010C068E086E00DC06EE089E0EB
:101C50000AC064E18FE007C067E185E104C088E164
:101C600006C062E289E10E94BA0DB9CF83E20E9408
:101C7000C20CB5CFC1E08C2FCF911F910F91089569
:101C80000E94401E811102C00E94F31E0E947B1E12
:101C900080932F03282F26952695269530E0273010
:101CA000310524F08770806380932F0380912F0388
:101CB00080FF04C086958695869501C080E00C94CF
:101CC000A00F20912F03822F869586958695482F09
:101CD00050E04630510554F48F5F982F990F990FBB
:101CE000990F822F8770892B80932F0380912F0368
:101CF000816080932F030E947F1E80912F03869521
:101D0000869586950C94A00F80912F03982F969519
:101D100096959695A1F0915E990F990F990F8770FE
:101D2000892B80932F03887F91E009F490E08091C4
:101D30002F0390FB80F980932F030E947F1E8091D8
:101D40002F038695869586950C94A00F80912F037E
:101D500080FD13C0816080932F03813019F489E0E6
:101D600080932F0380912F030E947F1E80912F0369
:101D70008695869586950C94A00F089580912F03E3
:101D800080FF08C08E7F80932F030E947F1E80E01B
:101D90000C94A00F089580912F0380FD0C94BE0E2B
:101DA0000C94A60E90912F03892F86958695869583
:101DB0008F5F8F719770873038F4880F880F880F86
:101DC000892B80932F0302C090932F0380912F03C0
:101DD000887F91E009F490E080912F0390FB80F9D7
:101DE00080932F030E947F1E80912F0386958695F6
:101DF00086950C94A00F873008F086E090912F0311
:101E00009770282F220F220F220F922B90932F03CF
:101E1000987F21E009F420E090912F0320FB90F9B6
:101E200090932F030C94A00F0E94FB0E80912F0320
:101E30000C947F1E9C01FB018281882349F12D3B7C
:101E4000FCE53F07C9F040F42B3BECE53E0769F0A9
:101E50002C3B3C4561F008952F3B9CE5390791F000
:101E600070F0203C3C4589F0089586E001C080E098
:101E70000E94140F80E008950E94840EFBCF0E9400
:101E8000610EF8CF0E94CB0EF5CF0E94D20EF2CF9A
:101E900081E00895859A8D9A08958D9808958D9A78
:101EA00008951F920F920FB60F9211242F933F9314
:101EB0004F935F936F937F938F939F93AF93BF9352
:101EC000EF93FF930E944F0FFF91EF91BF91AF915E
:101ED0009F918F917F916F915F914F913F912F9142
:101EE0000F900FBE0F901F9018951F920F920FB674
:101EF0000F9211242F933F934F935F936F937F9390
:101F00008F939F93AF93BF93EF93FF93809188003C
:101F1000909189008130914010F00E944D0FFF9107
:101F2000EF91BF91AF919F918F917F916F915F9151
:101F30004F913F912F910F900FBE0F901F901895CA
:101F4000CF92DF92EF92FF92CF93C82F8730A8F401
:101F5000811114C08091880090918900892B51F0E3
:101F600080916F008D7F80936F0080916F008E7FD6
:101F700080936F000E944F0F11C0C6E080918800CF
:101F800090918900892B51F480916F008260809339
:101F90006F0080916F00816080936F002C2F30E084
:101FA000AFEFBFEF0E944E2C26E030E040E050E063
:101FB0000E94262CC9012C3764E1360728F469E019
:101FC00070E00E94FE2B29C0DA01C9018A50974DAA
:101FD000AF4FBF4F6627782F892F9A2F25EF38E212
:101FE00041E050E00E94262C69017A01CA01B90142
:101FF0000E94D42B9B01AC01C701B6010E94D42BD7
:10200000BB27A92F982F872F009721E0A207B105A2
:1020100011F0BC0102C06FEF7FEF709389006093F5
:102020008800CF91FF90EF90DF90CF9008950895B2
:102030000E944A0F82E08093800089E180938100B2
:102040008FEF9FEF90938700809386000C94400E53
:10205000869A21B32F7B31B330644FB7F894FC01DB
:10206000CB01880F991F680F791F6E0F7F1FE6172E
:10207000F70789F0819198E031BB000000C087FF2D
:1020800021BB880F000000C000C000C021BB00C001
:102090009A9591F7ECCF4FBF8FE594E00197F1F758
:1020A00000C0000008950F931F93CF93DF93C62FB6
:1020B000D42F122FFC0182818823C9F0609319026A
:1020C0000E944720909318028093170280E28C0FA1
:1020D000883008F057C0C77081E001C0880FCA95EA
:1020E000EAF7DF91CF911F910F910C94FC1480912E
:1020F0001902681330C080911702909118020E9453
:102100005320883C910538F500E20D0FCD17B9F04A
:1021100080E28C0F883040F4C77081E001C0880FE6
:10212000CA95EAF70E940315083028F581E09D2F33
:10213000977001C0880F9A95EAF70E94FC14812FCE
:102140000E94E9140830F0F4D77081E001C0880FD4
:10215000DA95EAF70AC080E28C0F883098F4C770ED
:1021600081E001C0880FCA95EAF7DF91CF911F91F6
:102170000F910C940315812FDF91CF911F910F9137
:102180000C94E914DF91CF911F910F9108959C0158
:10219000CB01233F4CE53407F9F078F4283DFCE50A
:1021A0003F07B9F0293D4CE5340711F1273D3C4587
:1021B00031F526E241EE61EE1EC0253FFCE53F070A
:1021C00099F070F0263F3C45D1F427E245EE66EEEB
:1021D00012C027E245EE0EC026E241EE60EE0BC0D3
:1021E00027E245EE64EE07C026E241EE62EE03C050
:1021F00028E241E065EE0E94531080E00895FC0162
:102200008281882319F010921902089581E00895BF
:10221000CF93DF93EC01FB018281882309F41FC176
:10222000C230FCE5DF0708F41BC1C6319CE5D907C5
:1022300038F09E012A5F3C452930310508F010C175
:102240000E945D1E9093370380933603C031ECE506
:10225000DE0709F4C3C008F041C0C8308CE5D807D8
:1022600009F49AC0F0F4C430ECE5DE0709F487C045
:1022700068F4C2308CE5D80709F477C0C330DC4578
:1022800009F0E3C080913603826076C0C630ECE589
:10229000DE0709F46EC008F07BC0809136038860C9
:1022A0006BC0CC308CE5D80709F485C068F4CA301F
:1022B000ECE5DE0709F474C008F079C00E94C3178A
:1022C00080913603806858C0CE308CE5D80709F479
:1022D00076C008F07FC0809136038BC0CB3FECE521
:1022E000DE0709F44FC018F5C3318CE5D80709F4AF
:1022F0007DC078F4C131ECE5DE0709F473C0C2316A
:10230000DC4509F0A2C00E94C317809136038F7785
:1023100033C0C5318CE5D80709F472C008F486C013
:10232000CA3FDC4509F091C0809137033EC0CF3FE2
:10233000FCE5DF0709F45FC058F4CD3F9CE5D90701
:1023400009F444C008F43FC08091370382602DC077
:10235000C130FDE5DF0709F475C008F45DC0C23087
:10236000DD4509F072C080E06EC080913603816067
:1023700003C08091360380618093360366C08091EC
:10238000360311C0809137038260809337035DC0AC
:10239000809136038062F0CF809136038064ECCF69
:1023A0008091360388608460E7CF8160EECF8091B2
:1023B00036038E7FE1CF809136038D7FDDCF809114
:1023C0003603877FD9CF8091370318C080913703B8
:1023D0008D7FDBCF809136038F7ECECF8091360309
:1023E0008F7DCACF809136038F7BC6CF8091360315
:1023F000877F8B7FC1CF809137038D7F8E7FC5CF45
:102400008091360382FB222720F991E0922790FBEE
:1024100082F990FB83F9B0CF80913703982F909584
:1024200091708E7F892B90FB81F9AFCF0E94C317EB
:102430008091360387FB222720F991E0922790FBB9
:1024400087F99ACF81E00E94F51E80913603909122
:1024500037030E946E1E0E94C31780E001C081E016
:10246000DF91CF910895CF93DF9386319C4541F55D
:10247000EB010E948F1D982F8A81209116013091C7
:102480001701882379F09A7A81E009F480E080933B
:102490001A02911102C069E201C065E3C9010E94FC
:1024A000901F0AC080911A02811102C069E201C026
:1024B00065E3C9010E949B1F0E94DD1D80E001C0F1
:1024C00081E0DF91CF9108959093200280931F02C5
:1024D0000895E0911F02F0912002309721F00190C1
:1024E000F081E02D099480E00895E0911F02F091C1
:1024F0002002309799F020912A01222359F020914F
:10250000360327FF07C0DC012C9111962C931197FD
:1025100025E02C930280F381E02D09940895E09149
:102520001F02F0912002309739F022E0DC012C9359
:102530000480F581E02D0994089520911D023091C9
:102540001E022817390771F090931E0280931D0216
:10255000E0911F02F0912002309721F00680F78170
:10256000E02D0994089520911B0230911C02281738
:10257000390771F090931C0280931B02E0911F02B7
:10258000F0912002309721F00084F185E02D09942C
:10259000089585B7806885BF85B7806885BF089531
:1025A00008950C94D0120C94D1120C94D0120C9467
:1025B000D0120E94C9120E94D5120C94D31281E04D
:1025C00008950C94DF120E943E200E941F060E9474
:1025D000F8200E94400E0E94D70C0C94D7127F92D4
:1025E0008F929F92AF92BF92CF92DF92EF92FF9223
:1025F0000F931F93CF93DF93CDB7DEB72A970FB614
:10260000F894DEBF0FBECDBF0E9471060E94E1129A
:10261000811111C08FEF89838A831B820E9447201A
:102620008160782F9D838C8349815A816B818D8154
:102630000E94A3134FC042E2A42E42E0B42E00E059
:1026400010E0702E802F0E9408066C01F501819029
:1026500091905F01882699268114910431F40F5FCF
:102660001F4F0530110569F7D5CF8091BF0281FD5D
:102670000E94110680E0EE24E394F12C94012E21B7
:102680003F21232B09F18E837F82CE20DF2081E042
:10269000CD2809F480E088870E9447208160782F48
:1026A0009A8789874E815F8168858A850E94A313F6
:1026B000000F111FF801EE5DFD4F80819181E8262A
:1026C000F926F182E08206C08F5FEE0CFF1C8E308F
:1026D000A9F6C5CF0E940A0D0E9417100E94AC23D4
:1026E0000E946912909121028917C9F00E94691213
:1026F000809321022A960FB6F894DEBF0FBECDBF9D
:10270000DF91CF911F910F91FF90EF90DF90CF90CD
:10271000BF90AF909F908F907F900C9498032A96D3
:102720000FB6F894DEBF0FBECDBFDF91CF911F91E2
:102730000F91FF90EF90DF90CF90BF90AF909F9060
:102740008F907F900895CF93DF93CDB7DEB72B970F
:102750000FB6F894DEBF0FBECDBF4F835887698791
:102760007A878B87DE01119686E0FD0111928A95AA
:10277000E9F785E0FE01379601900D928A95E1F721
:1027800049815A816B817C818D819E810E947C1A56
:102790002B960FB6F894DEBF0FBECDBFDF91CF9161
:1027A0000895FC01808191810E94501D0895CF936E
:1027B000882309F4A4C0C82F8238C1F40E9469128A
:1027C00081FD9DC069E380911601909117010E94DF
:1027D000901F0E94DD1D2FEF81EE94E0215080407C
:1027E0009040E1F700C0000069E319C0833801F5AB
:1027F0000E94691280FD83C063E58091160190916B
:1028000017010E94901F0E94DD1D2FEF81EE94E0C2
:10281000215080409040E1F700C0000063E58091C6
:102820001601909117010E949B1FCF910C94DD1D02
:102830008438C1F40E94691282FD61C067E480910E
:102840001601909117010E94901F0E94DD1D2FEF2D
:1028500081EE94E0215080409040E1F700C00000FC
:1028600067E4DDCF8CEF8C0F813AD0F46C2F809130
:102870001601909117010E94101F882349F06C2FB8
:1028800080911601909117010E949B1F0E94DD1DEF
:102890006C2F80911601909117010E94901FC5CF57
:1028A00080E28C0F883048F4C77081E001C0880F47
:1028B000CA95EAF70E94921DB8CFEBE5EC0FE33022
:1028C00040F4F0E0E853FE4F808190E0CF910C940B
:1028D0009D12E8E5EC0FE73150F4F0E0EE0FFF1F3A
:1028E000E656FE4F80819181CF910C94B312C03F88
:1028F00030F08C2F0E94B422CF910C94A123CF9161
:102900000895882309F464C0823879F40E9469121A
:1029100081FF5EC069E380911601909117010E94CA
:10292000901F0E94DD1D69E310C08338B1F40E943E
:10293000691280FF4DC063E58091160190911701E7
:102940000E94901F0E94DD1D63E580911601909109
:1029500017010E949B1F0C94DD1D843879F40E949E
:10296000691282FF35C067E48091160190911701CA
:102970000E94901F0E94DD1D67E4E7CF9CEF980F37
:10298000913A10F4682FE1CF90E2980F983050F40C
:10299000877091E001C0990F8A95EAF7892F0E940C
:1029A000981DD9CF9BE5980F933020F480E090E0FC
:1029B0000C949D1298E5980F973120F480E090E0F8
:1029C0000C94B312803F20F00E941C230C94A1238E
:1029D0000895CF93C82F0E94D713C93349F42FEF1E
:1029E00087EE93E0215080409040E1F700C0000066
:1029F0008C2FCF910C948114882321F00E94921D7A
:102A00000C94DD1D0895882321F00E94981D0C94DC
:102A1000DD1D0895CF92DF92EF92FF920F931F93E7
:102A2000CF93DF937C01062FC72FFC0115811295F0
:102A30001F70D281D1110E94AF1D0E94881D882372
:102A400099F0DD2389F08C2F807F803421F080E2A3
:102A5000800F883048F082E00E94271E0E94881D67
:102A600091E0D82ED92601C0D12CCC2EC2948FE073
:102A7000C8228C2D90E0FC01E659FF4F0C94482CA5
:102A80008C2F807FCF70882311F0C295C07FDD230B
:102A900099F0CC2309F4C4C180E2800F883010F093
:102AA000011104C08C2F0E94921D03C08C2F0E9424
:102AB000A21D0E94DD1DB4C1802F0E948114CC2371
:102AC00009F4D3C180E2800F883010F0011104C0F6
:102AD0008C2F0E94981D03C08C2F0E94A81D0E945D
:102AE000DD1DC3C18C2F807FCF70803211F0C29565
:102AF000C07F002319F00130C9F022C0DD2371F03E
:102B0000112341F0113031F40E94C21D8C2B0E9420
:102B1000CA1DABC10E94C21D8C2B1DC0112319F010
:102B2000113009F4A2C10E94D31D25C0DD2321F07C
:102B3000163008F09AC10EC0153008F096C11BC0BF
:102B4000DD2361F0112331F0F701858180FF68C139
:102B50008F7085838C2F0E94FC1487C1112359F03C
:102B6000093309F06EC1FFEF27EE83E0F1502040FA
:102B70008040E1F764C18C2F0E94031576C18C2F31
:102B800086958695837019F0813061F06EC1DD23E2
:102B900021F0802F9C2F937002C080E090E00E9473
:102BA0009D126BC1DD2321F0802F9C2F937002C0FA
:102BB00080E090E00E94B31260C1DD23F9F0053F90
:102BC00051F0063F71F0043FA9F4809130039091D9
:102BD000310381600BC0809130039091310382609A
:102BE00005C080913003909131038460909331034C
:102BF00080933003802F0E94B4221EC0053F51F005
:102C0000063F71F0043FA9F48091300390913103A5
:102C10008E7F0BC080913003909131038D7F05C072
:102C200080913003909131038B7F90933103809397
:102C30003003802F0E941C230E94A1231EC18C2FD1
:102C4000837009F045C0D11114C1402F42954695BB
:102C50004770440F440F602F6F70862F90E0A0E004
:102C6000B0E0042E04C0880F991FAA1FBB1F0A944E
:102C7000D2F704FF10C00FE010E020E030E004C005
:102C8000000F111F221F331F4A95D2F70095109590
:102C90002095309503C000E010E09801C695C695D8
:102CA000C370BC01CD01602B712B822B932BC230E2
:102CB00049F058F4C13019F00E94CD1BDAC00E94CF
:102CC000BB1BD7C00E94DF1BD4C00E94B91BD1C060
:102CD000DD2319F08C2F817001C08695882309F4BB
:102CE000C8C0402F429546954770440F440F602F4F
:102CF0006F70862F90E0A0E0B0E0042E04C0880F33
:102D0000991FAA1FBB1F0A94D2F704FF10C00FE03F
:102D100010E020E030E004C0000F111F221F331F1D
:102D20004A95D2F7009510952095309503C000E0A4
:102D300010E09801C695C695C370BC01CD01602B0B
:102D4000712B822B932BC23049F058F4C13019F00B
:102D50000E94921C8EC00E94801C8BC00E94A41CEA
:102D600088C00E94F31B85C0CF70DD2339F08C2F03
:102D70000E94191C802F0E94FC147BC0802F0E948F
:102D800003158C2F0E943A1C74C0023F01F128F4F5
:102D9000003F41F0013FA1F03FC0033FF9F0043F85
:102DA00039F13AC0DD2341F0153008F05EC08C2FB8
:102DB0008F710E945F1C59C0163008F056C0F7CFC3
:102DC000DD2339F08C2F8F710E94191C4EC0DD233A
:102DD000C9F38C2F8F710E943A1C47C0DD2329F064
:102DE0008C2F8F710E94041C40C00E94FF1B3DC0AD
:102DF000DD2349F0CF718C2F0E94191C63E08C2FCA
:102E00000E94121E32C081E00E94271E123068F11B
:102E100082E00E94271E29C0DD2331F0112391F2A8
:102E2000802F0E94D71321C0112399F2093349F44E
:102E30009FEFE7EEF3E09150E040F040E1F700C093
:102E40000000802F0E94811410C04C2F4F70602F03
:102E5000C7010E94FA030E942A1B0FC04C2F4F701B
:102E6000602FC7010E94FD0308C088EF8C0D8430DD
:102E700020F40E9469120E949803DD20C9F00E948C
:102E8000841D80FD15C0F70112820E947E1D0E94E4
:102E9000191CC7010E9479170E947E1DDF91CF91F6
:102EA0001F910F91FF90EF90DF90CF900C943A1C00
:102EB000DF91CF911F910F91FF90EF90DF90CF9016
:102EC00008950F931F93CF93DF93EC01688179816D
:102ED0008A810E945B1D8C010E94B61C0E94A71B68
:102EE000B801CE010E940A15DF91CF911F910F9179
:102EF0000895CF93DF93EC01988189812B813C81E8
:102F0000232B31F08F3F31F481E09F3F19F403C050
:102F100081E001C080E080FD19C0CE010E94B103B4
:102F200081110CC00E94881D882381F08A8188232A
:102F300069F082E0DF91CF910C94271ECE010E94B0
:102F40006117CE01DF91CF910C947C03DF91CF917B
:102F500008950E94AF1D0E94BF1D0E94DD1D0E94AA
:102F6000CB240E94A12380E090E00E949D1280E08B
:102F700090E00C94B31280911601909117010E9479
:102F8000A61F0C94A9170E949F1D0C94BB17E92F34
:102F9000E295EF704E2F50E0FA013297EE30F105D6
:102FA000B0F4E658FF4F0C94482C803F91F018F491
:102FB000883E68F40EC0843F51F40BC0883E48F050
:102FC000813F29F406C093FB882780F9089580E0AB
:102FD000089581E008950E94501D0E94C71708952A
:102FE000CF93DF9300D000D01F92CDB7DEB70F9004
:102FF0000F900F900F900F90DF91CF910895CF9386
:10300000DF9300D000D000D0CDB7DEB726960FB644
:10301000F894DEBF0FBECDBFDF91CF9108951F930F
:10302000CF93DF93C0912D0216E080912E02C81736
:1030300099F0D0E01C9FF0011D9FF00D1124E15D7F
:10304000FD4F4081518162817381848195810E940D
:10305000FF172196C770E9CFDF91CF911F91089597
:1030600040915F0250916002609161027091620232
:1030700080916302909164020C94FF170F931F9349
:10308000CF93DF938091640282958F7009F05DC0C9
:1030900080916102882309F458C080912D0210911B
:1030A0002E0260915F0270916002C0916202D09125
:1030B000630291E06F3F09F090E0292F06E081174D
:1030C00009F443C0209721F07F3F21F030E003C096
:1030D00031E001C0322F90E030FD34C0089FF00194
:1030E000099FF00D1124DF01A15DBD4F11963C91A8
:1030F0001197371327C03C91361324C012963C9188
:10310000129731111FC013964D915C9114974C1B6F
:103110005D0B483C5105B0F4809164028F70806172
:1031200080936402EC5CFD4F80818F7080618083AE
:103130008FE592E00E947917DF91CF911F910F9157
:103140000C940F1801968770BACFDF91CF911F9121
:103150000F9108959F92AF92BF92CF92DF92EF921C
:10316000FF920F931F93CF93DF93CDB7DEB7619795
:103170000FB6F894DEBF0FBECDBF8C0185E0F8011D
:10318000DE011D9601900D928A95E1F7F8014081CC
:103190005181E28090915F02609160022091620211
:1031A000309163022115310531F06F3F31F481E038
:1031B0009F3F19F403C081E001C080E0F82FF17057
:1031C0009F2E80FD46C1F801A380B4808FE5C82EF4
:1031D00082E0D82EF0906102F501E21BF30BFF2094
:1031E00009F4DFC080916402E83CF10508F09BC05F
:1031F000282F207F09F052C0561313C0491311C065
:10320000FE2CE1100EC08F708061809364020E94DA
:103210003018C6010E94791780916402F8018583F5
:1032200058C1AB2831F05F3F31F481E04F3F19F4D2
:1032300003C081E001C080E080FD03C081E08E25F5
:1032400002C080E090E0F82FF170FF2E80FF1CC0DC
:1032500080912D0220912E0236E0821709F417C1C9
:1032600090E0389FF001399FF00D1124E15DFD4F92
:103270006181561306C06081461303C06281E61265
:1032800003C001968770E9CFFE2CEE2009F421C11E
:10329000809164028160809364025AC0561306C014
:1032A000491304C0E11002C0F8019FC04D875E873A
:1032B0008D859E850E94EB17882379F1EE2069F1B8
:1032C00020916402822F82958F7090E0029774F0B3
:1032D00080915F029091600298878F831986BB86E8
:1032E000AA862C87CE0107960E94791786E0F801FE
:1032F000AFE5B2E001900D928A95E1F70E943E1889
:103300000E9430180DC0561729F14D875E878D85B4
:103310009E850E94EB1781112CC0C8010E9479176D
:10332000FF24F394D6C0282F207F69F77A2DB98A1D
:10333000A88A6E2D89890E94F0178FE592E00E947D
:10334000791786E0F60111928A95E9F70E94301804
:10335000F12CBFC04913D9CFE110D7CFF801858335
:10336000C8010E94791786E0F60111928A95E9F763
:10337000B0C0EE2091F220916402822F82958F706E
:1033800090E002970CF4B2CF80915F0290916002BE
:103390009A8389831B82BD82AC822E83CE010196E3
:1033A000A3CFE83CF10508F047C0FE2CEE2009F45D
:1033B000B4CF561330C049132EC02091640220FDB3
:1033C00021C0822F82958F70482F50E04115510502
:1033D000C9F0F80125834F30510541F08F5F982FD8
:1033E0009295907F822F8F70892B8583C8010E94D0
:1033F000791786E0F801AFE5B2E001900D928A9569
:10340000E1F742C086E0F801AFE5B2E001900D922D
:103410008A95E1F75EC04D875E878D859E850E9407
:10342000EB17811163CF8091640281608093640205
:10343000C8010E9479174DC07A2DB98AA88A6E2DCD
:1034400089890E94F01786E0F60111928A95E9F7C2
:103450001BC0EE2009F461CF4D875E878D859E8568
:103460000E94EB17F82E882309F457CF86E0F80165
:10347000AFE5B2E001900D928A95E1F78FE592E019
:103480000E94D1130E943E180E94301822C04D871E
:103490005E878D859E850E94501D292F22952F7055
:1034A000223028F49F7039F0811105C00BC0243000
:1034B00028F49F7049F4805E883020F0C8010E9493
:1034C00079179F2CF92C05C0F8019581907F99F709
:1034D000F9CF8F2D61960FB6F894DEBF0FBECDBF2A
:1034E000DF91CF911F910F91FF90EF90DF90CF90E0
:1034F000BF90AF909F9008951F93CF93DF93CDB768
:10350000DEB72C970FB6F894DEBF0FBECDBF4F834A
:10351000588769877A878B879C87CE0107960E9498
:10352000AA188823D1F09F8188852A853B85232B83
:1035300031F08F3F31F481E09F3F19F403C081E007
:1035400001C080E080FD47C04F81588569857A853C
:103550008B859C850E94FF173EC086E0FE01379652
:10356000DE01119601900D928A95E1F7FF81E885C1
:103570006A857B856115710531F0EF3F31F481E09B
:10358000FF3F19F403C081E001C080E080FD23C04B
:1035900020912E0230E0C901019687709927409151
:1035A0002D0250E084179507F1F1F983EA837D83BA
:1035B0006C8396E0929FD001939FB00D1124A15D82
:1035C000BD4FFE01319601900D929A95E1F78093DF
:1035D0002E020E940F1816E080912D0290912E026B
:1035E000891771F1189FC0011124815D9D4F0E94C0
:1035F000AA18882329F1E0912D021E9FF0011124C1
:10360000E15DFD4F408151816281738184819581AB
:103610000E94FF1780912D0290E0019687709927F4
:1036200080932D02D9CF0E94C31710922E021092C0
:103630002D02EFE5F2E086E0DF011D928A95E9F7C1
:103640002C960FB6F894DEBF0FBECDBFDF91CF91A1
:103650001F910895EF92FF920F931F93CF93DF93E3
:103660008C01892B09F46CC0F12CEE24E394E80161
:103670002196F8018491843740F4843008F051C0D9
:10368000813081F0823019F15BC0853709F444C084
:10369000A8F19CE7980F903708F052C08F770E94EE
:1036A000811441C00E5F1F4FFE01849190E2980F7C
:1036B000983050F48770FE2D01C0FF0F8A95EAF70D
:1036C0008F2F0E94B21D14C00E94D7132DC00E5F11
:1036D0001F4FFE01849190E2980F983060F487703C
:1036E000FE2D01C0FF0F8A95EAF78F2F0E94B81DAB
:1036F0000E94DD1D19C00E94811416C00E5F1F4F6D
:10370000FE01C491CC2381F08FE99FE00197F1F78E
:1037100000C00000C150F6CF0E5F1F4FFE01F490B5
:1037200003C00E94D7138E018F2D882309F49FCFE9
:10373000EFE9FFE03197F1F700C000008150F5CFCD
:10374000DF91CF911F910F91FF90EF900895089511
:1037500008950C94A81B0C94A91B0E94AB1B6093AA
:1037600096027093970280939802909399020C941A
:10377000A9170C94AD1B0F931F9300919602109103
:1037800097022091980230919902602B712B822B25
:10379000932B1F910F910C94AD1B0F931F930091CE
:1037A000960210919702209198023091990260231D
:1037B0007123822393231F910F910C94AD1B0F93C0
:1037C0001F930091960210919702209198023091D8
:1037D000990260277127822793271F910F910C94DC
:1037E000AD1B0C94A81B0E94F11B60939202709376
:1037F000930280939402909395020C94A91760E031
:1038000070E0CB010C94F31B0F931F9341E050E049
:1038100060E070E08A019B0104C0000F111F221FAD
:10382000331F8A95D2F7C901B8011F910F910C94EB
:10383000F31B0F931F9341E050E060E070E004C081
:10384000440F551F661F771F8A95D2F78091920209
:1038500090919302A0919402B09195028A019B01EC
:10386000082B192B2A2B3B2BC901B8011F910F9153
:103870000C94F31B0F931F9341E050E060E070E065
:1038800004C0440F551F661F771F8A95D2F74095D5
:103890005095609570958091920290919302A091BD
:1038A0009402B09195028A019B01082319232A23CF
:1038B0003B23C901B8011F910F910C94F31B0F9387
:1038C0001F9341E050E060E070E004C0440F551FDA
:1038D000661F771F8A95D2F780919202909193028A
:1038E000A0919402B09195028A019B0108271927A3
:1038F0002A273B27C901B8011F910F910C94F31B94
:103900000F931F93009192021091930220919402C1
:1039100030919502602B712B822B932B1F910F916D
:103920000C94F31B0F931F9300919202109193023A
:103930002091940230919502602371238223932376
:103940001F910F910C94F31B0F931F930091920200
:103950001091930220919402309195026027712773
:10396000822793271F910F910C94F31B08952EE04B
:10397000929F800D1124E82FE695E695E6958770D5
:1039800051E001C0550F8A95EAF785E0E89FF00104
:103990001124EB59FD4F20E030E070E04081CB0175
:1039A000022E02C0969587950A94E2F78170819560
:1039B00084278523842781932F5F3F4F253031054E
:1039C00069F708952EE0929F800D1124682F669567
:1039D00066956695982F977085E0689FB0011124D1
:1039E00040E050E080E0FB01E40FF51FEB59FD4F94
:1039F000208130E0092E02C0369527950A94E2F71F
:103A000021703327042E01C0220F0A94EAF7822B7B
:103A10004F5F5F4F4530510531F70895BF92CF9208
:103A2000DF92EF92FF920F931F93CF93DF938C015E
:103A3000C0909202D0909302E0909402F090950290
:103A40008091960290919702A0919802B09199026C
:103A5000C82AD92AEA2AFB2ACFE1D0E0D701C60139
:103A60000C2E04C0B695A795979587950A94D2F722
:103A700080FD04C0219790F7B12C07C0BC2EB8017F
:103A80008C2F0E9419040197A9F38B2DDF91CF9100
:103A90001F910F91FF90EF90DF90CF90BF9008950E
:103AA000CF93DF93EC010E940E1DBE010E9419040A
:103AB000DF91CF9108951F93CF93DF93EB01909106
:103AC0002C02992321F0CB010E94501D13C08823A2
:103AD00049F0CB010E940E1D182F682FCE010E94C5
:103AE000B71C04C0CB010E94E21C182FBE01812F1D
:103AF0000E941904DF91CF911F91089580919A023D
:103B0000859585958595089580919A028770089589
:103B100090919A02977081E009F480E00895809175
:103B2000BE0208959091BE02892B8093BE02089533
:103B300080959091BE0289238093BE0208951092D1
:103B4000BE0208959091BD02892B8093BD02089515
:103B500080959091BD0289238093BD0208951092B3
:103B6000BD0208959091BC02892B8093BC020895F8
:103B700080959091BC0289238093BC020895109295
:103B8000BC02089580919B02089508950C94C51D70
:103B90000C94C61D90919B02981721F080939B0274
:103BA0000C94C81D089580919B02882329F01092DF
:103BB0009B0280E00C94C81D0895E0911601F091DD
:103BC00017018091BE028083E0911601F0911701E8
:103BD00090818091BD02892B8083E0911601F09144
:103BE000170190818091BC02892B808380919B0278
:103BF000882381F0E0911601F09117019081892BC3
:103C0000808380911601909117010E94FA1E811104
:103C10000E94D31D80911601909117010C9475128A
:103C20000C94C51D98E0899F90011124262B2093A8
:103C30009A020E94191C80919A0285958595859516
:103C40000C94101E10929A0280E00C94101E209189
:103C50009A028095822380939A02982F977079F424
:103C600030E0482F082E000C550B2417350739F08B
:103C70008595859585950E943A1C0C94221E089581
:103C800080E090E00E94DF2C21E08C3E9E4F09F006
:103C900020E0822F089582E090E00C94D12C682FD0
:103CA00082E090E00C94E52C83E090E00C94D12C21
:103CB000682F83E090E00C94E52CCF9384E090E0B3
:103CC0000E94D12CC82F81E290E00E94D12C2C2F91
:103CD00030E0A901582BCA01CF910895CF93C92F85
:103CE000682F84E090E00E94E52C6C2F81E290E048
:103CF000CF910C94E52C86E090E00C94D12C682FA9
:103D000086E090E00C94E52CAB01BC018FE090E0E4
:103D10000C94F72CAB01BC0183E190E00C94F72CE0
:103D200060E070E0CB010C948A1E60E070E0CB0193
:103D30000E94841E0C94901E6CEE7EEF80E090E05A
:103D40000E94032D60E082E090E00E94E52C60E09C
:103D500083E090E00E94E52C109296021092970268
:103D6000109298021092990260E084E090E00E9424
:103D7000E52C60E081E290E00E94E52C60E085E0C7
:103D800090E00E94E52C60E086E090E00E94E52C47
:103D90006FEF87E090E00E94E52C40E050E0BA0130
:103DA00088E090E00E94F72C60E08DE090E00E94B7
:103DB000E52C40E050E0BA0188E190E00E94F72C49
:103DC00060E087E190E00E94E52C40E050E0BA011D
:103DD0008CE190E00E94F72C60E080E290E00E948D
:103DE000E52C0C94951E0C949C1E682F8EE090E0A0
:103DF0000C94E52CFC01329680912A01882331F045
:103E00008091360387FF02C09EE101C096E080E00A
:103E1000915028F021912223D9F38F5FF9CF089593
:103E2000662351F120912A012223E9F020913603E3
:103E300027FF19C0462F4695469546954E31E0F42A
:103E4000677021E030E002C0220F331F6A95E2F76D
:103E5000FC01E40FF11D828190E02823392381E0E9
:103E6000232B69F409C0FC01329608962191621750
:103E700029F0E817F907D1F780E0089581E0089567
:103E80009C01FC0132969FEF80E04191461789F03A
:103E90009F3F19F4411101C0982F8F5F8630A9F719
:103EA0009F3F39F0F901E90FF11D97FDFA95628303
:103EB000089508959C012A5F3F4FFC0142814613FB
:103EC00001C01282019682179307B9F70895262F31
:103ED0002695269526952E3168F4FC01E20FF11DFA
:103EE000677021E030E001C0220F6A95EAF7828115
:103EF000282B22830895262F2695269526952E3148
:103F000070F4FC01E20FF11D677021E030E001C0A8
:103F1000220F6A95EAF7209582812823228308954B
:103F200020912A01222329F02091360327FD0C94A9
:103F3000671F0C94401F20912A01222329F0209111
:103F4000360327FD0C947B1F0C945A1F20912A01E5
:103F5000FC013296222331F08091360387FF02C0A4
:103F60008EE101C086E0DF011D928A95E9F7089590
:103F700008950C94B81F0C94B81FCF930E94BB1FD8
:103F80000E9471060E94B91FC0E08C2F0E94080693
:103F9000892B29F4CF5FC530C1F780E001C081E0F3
:103FA000CF9108950C94B81F0C94D21F0E94D41F77
:103FB00080913C03843061F11092C00220E488E1DA
:103FC00090E00FB6F894A895809360000FBE209300
:103FD000600080E00E94A00F80E00E9498030E9491
:103FE000D41F83B7817F846083BF83B7816083BF21
:103FF0007894889583B78E7F83BF0FB6F894A89581
:1040000080916000886180936000109260000FBE14
:1040100008950C94B81F0E94C3170E94400E0E947E
:1040200069120E9498030C9409201F920F920FB6F8
:104030000F9211248F939F93AF93BF938091C002EF
:10404000811113C08091320390913303A091340306
:10405000B09135034196A11DB11D80933203909319
:104060003303A0933403B0933503BF91AF919F9175
:104070008F910F900FBE0F901F90189582E084BD16
:1040800093E095BD9AEF97BD80936E0008952FB78A
:10409000F8948091320390913303A0913403B0914E
:1040A00035032FBF08959C014FB7F89480913203D8
:1040B00090913303A0913403B09135034FBF821B1D
:1040C000930B089578941F920F920FB60F921124BC
:1040D0008F939F93AF93BF9380913203909133035B
:1040E000A0913403B09135030196A11DB11D8093B9
:1040F000320390933303A0933403B0933503BF91FD
:10410000AF919F918F910F900FBE0F901F901895B8
:1041100081E08093E00080E28093D8001092C90093
:104120008FE19EE40197F1F700C0000087E090EB7B
:10413000DC018093450390934603A0934703B0931B
:1041400048039CE088E10FB6F894A895809360003E
:104150000FBE90936000FFCFAF92BF92CF92DF92DD
:10416000EF92FF920F931F93CF93C0E0CC24C394A0
:10417000D12CE82EF12C8C2F0E9408065C0100E067
:1041800010E0C601002E02C0880F991F0A94E2F7C2
:104190008A219B21892B31F40F5F1F4F0E301105AF
:1041A00081F70AC0602F7C2F80E00E94FE03E81692
:1041B000F90691F781E004C0CF5FC530E1F680E0F9
:1041C000CF911F910F91FF90EF90DF90CF90BF9014
:1041D000AF900895CF93C82F8CE20E94AC20882323
:1041E00021F08C2FCF910C94AC2080E0CF910895DA
:1041F000CF930E94401E811102C00E94F31EC5E6AB
:10420000C15049F00E9471068FE39CE90197F1F7D4
:1042100000C00000F5CF89E20E94EA20811120C190
:104220008AE20E94EA2081110E94F31E85E00E942A
:10423000EA2081110E9488200E944B1E8093BF02B9
:1042400087E00E94EA208823A9F18BE10E94EA20FE
:10425000882351F08091BF0281FB222720F991E051
:10426000922790FB81F90EC08EE00E94EA208823FD
:1042700061F08091BF0282FB222720F991E0922712
:1042800090FB82F98093BF0215C080E10E94EA2072
:104290009091BF02882341F093FB222720F981E00F
:1042A000822780FB93F904C0892F809580FB90F9C9
:1042B0009093BF028091BF020E944F1E0E945D1E1C
:1042C000909337038093360380EE0E94EA20882380
:1042D00041F080913603982F909590FB80F9809360
:1042E000360389E30E94EA20882359F0809136033F
:1042F00081FB222720F991E0922790FB81F980939E
:10430000360382EE0E94EA20882359F0809136031A
:1043100082FB222720F991E0922790FB82F980937B
:10432000360386EE0E94EA20882359F080913603F6
:1043300083FB222720F991E0922790FB83F9809359
:10434000360383EE0E94EA20882359F080913603D9
:1043500084FB222720F991E0922790FB84F9809337
:10436000360385E30E94EA20882359F080913603C2
:1043700085FB222720F991E0922790FB85F9809315
:10438000360381E30E94EA20882359F080913603A6
:1043900086FB222720F991E0922790FB86F98093F3
:1043A000360381E10E94EA20882359F08091360388
:1043B00087FB222720F991E0922790FB87F98093D1
:1043C000360380913603909137030E946E1E87E278
:1043D0000E94EA20C82F8EE10E94EA208111C2606B
:1043E0008FE10E94EA208111C46080E20E94EA20ED
:1043F0008111C86081E20E94EA208111C06182E2DD
:104400000E94EA208111C06283E20E94EA208111A9
:10441000C06484E20E94EA20882311F0C06802C0D0
:10442000CC2329F08C2F0E94581E6C2F03C00E94B1
:10443000541E682F70E080E090E00E94B91B8FE06E
:104440000E94EA20882319F081E00E94F51E85E190
:104450000E94EA20882321F080E0CF910C94F51E81
:10446000CF9108958091C80280FF0BC060911D011B
:1044700085E0689FB00111247595679575956795DE
:104480002BC081FF09C060911D0185E0689FB001CC
:1044900011247595679520C082FF07C060911D01AA
:1044A00085E0689FB001112417C09091C70299233D
:1044B000D1F060911C01961788F720911D0185E0CD
:1044C000289F90011124929FA001939F500D1124C9
:1044D00070E0CA010E94122C6038710540F4611529
:1044E000710519F406C065E070E0862F08958FE726
:1044F000089581E008958091C80280FF08C060910E
:10450000190170E0759567957595679521C081FFD4
:1045100006C06091190170E07595679519C082FF1A
:1045200004C06091190170E010C09091C7029923F6
:1045300099F0609118019617A0F780911901899F51
:10454000C001112470E00E94122C6038710540F403
:104550006115710519F406C061E070E0862F0895B9
:104560008FE7089581E00895803F21F40E94322270
:10457000819504C0813F29F40E9432228093CC02AD
:104580000895823F21F40E943222819504C0833F26
:1045900029F40E9432228093CB020895893F19F4B6
:1045A0000E947B2205C08A3F31F40E947B228195C4
:1045B0008093CD0208958B3F21F40E947B22819548
:1045C00004C08C3F29F40E947B228093CE02089580
:1045D000843F21F48091CA02816017C0853F21F495
:1045E0008091CA02826011C0863F21F48091CA0284
:1045F00084600BC0873F21F48091CA02886005C0A7
:10460000883F31F48091CA0280618093CA02089584
:104610008D3F21F48091C80281600BC08E3F21F450
:104620008091C802826005C08F3F29F48091C80242
:1046300084608093C8020895803F39F48091CC0251
:1046400087FF6CC01092CC0269C0813F29F4809131
:10465000CC021816BCF362C09091CB02823F29F4C1
:1046600097FF5CC01092CB0259C0833F19F4191612
:10467000CCF354C0893F41F48091CD0218160CF060
:104680004DC01092CD024AC08A3F29F48091CD02DC
:1046900087FF44C0F6CF8B3F39F48091CE0287FF6D
:1046A0003DC01092CE023AC08C3F29F48091CE02D8
:1046B0001816BCF333C0843F21F48091CA028E7F68
:1046C00017C0853F21F48091CA028D7F11C0863FBB
:1046D00021F48091CA028B7F0BC0873F21F4809127
:1046E000CA02877F05C0883F31F48091CA028F7E5D
:1046F0008093CA0213C08D3F21F48091C8028E7F3F
:104700000BC08E3F21F48091C8028D7F05C08F3F82
:1047100029F48091C8028B7F8093C8028091CB02DC
:1047200081110EC08091CC0281110AC08091CD020E
:10473000811106C08091CE02811102C01092C70281
:10474000089589EC92E00E948F120E944720909376
:10475000C6028093C5020895CF93DF9300D000D0A6
:1047600000D0CDB7DEB786E0E9ECF2E0DE011196CD
:1047700001900D928A95E1F78091CB02811105C0DD
:104780008091CC02882309F47AC08091C302909171
:10479000C4020E945320AC019091C702992339F0C2
:1047A00020911E0130E02417350758F068C0209191
:1047B0001F018AE0289F900111242417350718F063
:1047C0005EC09F3F19F09F5F9093C7021092CD0289
:1047D0001092CE028091CB02181624F40E9432224D
:1047E0008093CB028091CB0287FF05C00E943222CA
:1047F00081958093CB028091CC02181624F40E94FC
:1048000032228093CC028091CC0287FF05C00E94A7
:10481000322281958093CC023091CB023323E1F098
:104820002091CC022223C1F045EB3403C0011124B6
:10483000992319F09093CB0203C081E08093CB02BF
:1048400035EB2303C0011124992319F09093CC0276
:1048500003C081E08093CC020E94A1238091C50215
:104860009091C6029093C4028093C30286E0FE0139
:104870003196A9ECB2E001900D928A95E1F7809112
:10488000CD02811105C08091CE02882309F47AC03F
:104890008091C1029091C2020E945320AC0190917C
:1048A000C702992339F020911A0130E02417350707
:1048B00058F068C020911B018AE0289F90011124C4
:1048C0002417350718F05EC09F3F19F09F5F909343
:1048D000C7021092CB021092CC028091CD02181622
:1048E00024F40E947B228093CD028091CD0287FF29
:1048F00005C00E947B2281958093CD028091CE02DB
:10490000181624F40E947B228093CE028091CE025E
:1049100087FF05C00E947B2281958093CE02309153
:10492000CD023323E1F02091CE022223C1F045EBEA
:104930003403C0011124992319F09093CD0203C0D0
:1049400081E08093CD0235EB2303C001112499232C
:1049500019F09093CE0203C081E08093CE020E94B2
:10496000A1238091C5029091C6029093C2028093C8
:10497000C10286E0FE013196A9ECB2E001900D92F1
:104980008A95E1F726960FB6F894DEBF0FBECDBF2D
:10499000DF91CF910895E9ECF2E086E0DF011D920E
:1049A0008A95E9F71092C7021092C8020895809183
:1049B000EF020895CF93DF9300D01F92CDB7DEB7FB
:1049C00090913C03943019F589837B836A8382E05C
:1049D0008093E9008FEF9091E800815095FD06C02B
:1049E00095ED9A95F1F700008111F5CF8091E800DF
:1049F00085FF0DC040E050E063E070E0CE0101961D
:104A00000E9436278091E8008E778093E8000F900F
:104A10000F900F90DF91CF910895CF93DF93EC012A
:104A20000E941927823011F0843031F4BE0184E0F5
:104A3000DF91CF910C94DA24DF91CF910895BC01DE
:104A400083E00C94DA24CF93DF93EC010E941927C2
:104A5000823011F08430F9F482E08093E9008FEF26
:104A60009091E800815095FD06C095ED9A95F1F77B
:104A700000008111F5CF8091E80085FF0CC040E077
:104A800050E066E070E0CE010E9436278091E80099
:104A90008E778093E800DF91CF910895CF93DF93D5
:104AA000EC010E941927823011F08430D9F58091F1
:104AB0002A01882339F08091360387FF03C060E222
:104AC00082E002C068E081E08093E9008FEF90917E
:104AD000E800815095FD06C095ED9A95F1F700002C
:104AE0008111F5CF8091E80085FF1CC080912A01DB
:104AF000811105C040E050E068E070E003C070E064
:104B000040E050E0CE010E9436278091E8008E7789
:104B10008093E80080E2FE01AFECB2E001900D92DC
:104B20008A95E1F7DF91CF91089580913B03811140
:104B300009C00E94C7280E9424298091E200846055
:104B40008093E200089510923B030895089508951C
:104B50000C940B2042E061EC81E00E94402842E28C
:104B600061EC82E00C94402880913E03833009F48C
:104B700060C030F4813071F0823009F499C008953A
:104B80008A3009F485C08B3009F46BC0893009F094
:104B9000A7C020C080913D03813A09F0A1C0809157
:104BA000E800877F8093E800809141039091420361
:104BB000892B21F460E28FEC92E003C060E080E09A
:104BC00090E070E00E9481278091E8008B778093CD
:104BD000E800089580913D03813209F081C0809101
:104BE000410390914203029708F07AC08091E80057
:104BF000877F8093E8008091E80082FD05C0809166
:104C00003C038111F8CF6CC02091F3008091F20039
:104C100090E0922B029729F48091F1008B7F8130F4
:104C200021F48091F1008093EF028091E8008B776E
:104C300053C080913D03813A09F052C080914103F5
:104C400090914203892B09F04BC08091E800877F47
:104C50008093E8008091E80080FFFCCF80912A01DA
:104C600036C080913D038132D9F580914103909106
:104C70004203892BA9F58091E800877F8093E800A3
:104C80000E94752880913F0380932A010C94C317DA
:104C900080913D03813221F58091E800877F8093E8
:104CA000E8000E947528809140038093F0020895E7
:104CB00080913D03813AA1F48091E800877F809341
:104CC000E8008091E80080FFFCCF8091F0028093A3
:104CD000F1008091E8008E778093E8000C947528AD
:104CE000089584B7877F84BF0FB6F894A895809104
:104CF0006000886180936000109260000FBE90E0B9
:104D000080E80FB6F89480936100909361000FBE25
:104D10000E94D9120E94C7280E9424298091E20093
:104D200084608093E20078940E94B92B0E94E31281
:104D300080E291E00E94641280913C03853069F426
:104D40000E94D61F80913A038823B1F30E94BD1FB1
:104D5000882391F30E942027EFCF0E94EF12ECCF1F
:104D60000C94B226292F332723303105C9F060F483
:104D70002130310581F02230310509F04AC08BE342
:104D800090E022E834E049C02132310511F12232AD
:104D9000310579F13EC082E190E02DEB34E03DC079
:104DA00099278130910561F040F08230910559F0EA
:104DB000039779F5E6E5F4E008C0EEE7F4E005C016
:104DC000E0E7F4E002C0ECE5F4E0849190E09F01BC
:104DD00024C06115710541F061307105D1F489E09D
:104DE00090E02DEA34E019C089E090E024E934E055
:104DF00014C06115710541F06130710551F48CEBFF
:104E000090E02FEC34E009C080E490E02BE835E03E
:104E100004C080E090E020E030E0FA01318320839C
:104E2000089580913C03843011F081E0089582E080
:104E300008958091F102811102C00C941127089508
:104E400080E189BD82E189BD09B400FEFDCF80917A
:104E5000D8008F7D8093D8008091E000826080939D
:104E6000E0008091E00081FDFCCF0895CF92DF92B9
:104E7000EF92FF920F931F93CF93DF93EC018B017F
:104E80007A010E949428811133C0E114F10439F0B1
:104E9000F70180819181081B190BC80FD91FC12C04
:104EA000D12C0115110519F18091E80085FD16C07E
:104EB0008091E8008E778093E800E114F10449F0D6
:104EC000F70180819181C80ED91ED182C08285E010
:104ED0000FC00E949428882321F30AC089918093EF
:104EE000F10001501109FFEFCF1ADF0ADACF80E09D
:104EF000DF91CF911F910F91FF90EF90DF90CF90B6
:104F0000089520914303309144032617370748F052
:104F10006115710539F42091E8002E772093E8009F
:104F200001C0B901FC0120E06115710579F18091A2
:104F30003C038823F1F18530F1F18091E80083FD95
:104F40003CC08091E80082FD2EC08091E80080FF87
:104F5000EBCF2091F3008091F20090E0922B61154D
:104F6000710551F08830910538F421912093F100BA
:104F7000615071090196F3CF21E0089709F020E014
:104F80008091E8008E778093E800CECF2111CFCFBB
:104F90000AC080913C03882361F0853061F08091E4
:104FA000E80083FD0AC08091E80082FFF2CF80E034
:104FB000089582E0089583E0089581E008952091A6
:104FC0004303309144032617370748F061157105F4
:104FD00039F42091E8002E772093E80001C0B90150
:104FE000FC0120E06115710591F180913C0388235B
:104FF00009F440C0853009F43FC08091E80083FD8A
:105000003DC08091E80082FD2FC08091E80080FFC4
:10501000E9CF2091F3008091F20090E0922B61158E
:10502000710559F08830910540F424912093F100E6
:105030003196615071090196F2CF21E0089709F08D
:1050400020E08091E8008E778093E800CBCF21119B
:10505000CCCF0AC080913C03882361F0853061F099
:105060008091E80083FD0AC08091E80082FFF2CFC2
:1050700080E0089582E0089583E0089581E0089536
:10508000982F973068F59093E900981739F0709150
:10509000EC002091ED005091F00003C0242F762FFA
:1050A00050E021FD02C09F5FECCF3091EB003E7FCE
:1050B0003093EB003091ED003D7F3093ED00309167
:1050C000EB0031603093EB007093EC002093ED0027
:1050D0005093F0002091EE0027FDE5CF80E0089589
:1050E0008F708093E90081E0089580913D0387FFF0
:1050F00011C08091E80082FD05C080913C038111C0
:10510000F8CF11C08091E8008B770BC080913C03F1
:10511000882349F08091E80080FFF8CF8091E80073
:105120008E778093E80008952091E4003091E500A7
:1051300095E64091EC00842F817040FF23C0809160
:10514000E80080FD1DC080913C03882399F08530E4
:1051500099F08091EB0085FD11C04091E4005091E1
:10516000E5002417350729F3915011F09A01E1CF9A
:1051700084E0089582E0089583E0089581E0089531
:1051800080E008954091E80042FFDDCF08950E943D
:1051900035290E943D29E0EEF0E080818160808326
:1051A000E8EDF0E080818F77808319BCA7EDB0E057
:1051B0008C918E7F8C9380818F7E808310923B03B5
:1051C00008950F931F93CF93DF930E9435290E9478
:1051D0003D29C8EDD0E088818F77888388818068F9
:1051E000888388818F7D888319BC10923C0310923C
:1051F000380310923A031092390300EE10E0F801E0
:1052000080818B7F808388818160888342E060E039
:1052100080E00E944028E1EEF0E080818E7F808374
:10522000E2EEF0E08081816080838081886080830D
:10523000F80180818E7F8083888180618883DF91FF
:10524000CF911F910F910895E8EDF0E080818F7E5E
:105250008083E7EDF0E080818160808384E082BF1D
:1052600081E080933B030C94E128E8EDF0E080813D
:105270008E7F80831092E20008951092DA001092DF
:10528000E10008951F920F920FB60F9211242F93F1
:105290003F934F935F936F937F938F939F93AF93BE
:1052A000BF93EF93FF938091E10082FF0BC0809149
:1052B000E20082FF07C08091E1008B7F8093E100D4
:1052C0000E94B82B8091DA0080FF1FC08091D80027
:1052D00080FF1BC08091DA008E7F8093DA0080917E
:1052E000D90080FF0DC080E189BD82E189BD09B48C
:1052F00000FEFDCF81E080933C030E94952505C010
:1053000019BC10923C030E94A3258091E10080FF0C
:1053100019C08091E20080FF15C08091E2008E7F6D
:105320008093E2008091E20080618093E2008091AE
:10533000D80080628093D80019BC85E080933C033C
:105340000E94A7258091E10084FF30C08091E20097
:1053500084FF2CC080E189BD82E189BD09B400FED3
:10536000FDCF8091D8008F7D8093D8008091E1009F
:105370008F7E8093E1008091E2008F7E8093E20037
:105380008091E20081608093E2008091380388235D
:1053900011F084E007C08091E30087FD02C081E046
:1053A00001C083E080933C030E94A8258091E10026
:1053B00083FF29C08091E20083FF25C08091E10036
:1053C000877F8093E10082E080933C031092380352
:1053D0008091E1008E7F8093E1008091E2008E7FDA
:1053E0008093E2008091E20080618093E20042E0DD
:1053F00060E080E00E9440288091F0008860809307
:10540000F0000E94A625FF91EF91BF91AF919F916F
:105410008F917F916F915F914F913F912F910F905D
:105420000FBE0F901F9018951F920F920FB60F92FC
:1054300011242F933F934F935F936F937F938F9399
:105440009F93AF93BF93CF93DF93EF93FF93C0915D
:10545000E900CF708091EC00D82FD17080FDD0E8AA
:105460001092E9008091F000877F8093F00078949B
:105470000E94582A1092E9008091F0008860809381
:10548000F000CD2BCF70C093E900FF91EF91DF9139
:10549000CF91BF91AF919F918F917F916F915F91CC
:1054A0004F913F912F910F900FBE0F901F90189525
:1054B0001F93CF93DF93CDB7DEB7AA970FB6F894BB
:1054C000DEBF0FBECDBFEDE3F3E08091F10081932D
:1054D00023E0E534F207C9F70E94B4258091E80083
:1054E00083FF2EC180913D0390913E03492F50E0F0
:1054F0004A30510508F024C1FA01E857FF4F0C94D7
:10550000482C803821F0823809F01AC108C08091F7
:10551000390390913A03992389F082600FC08091FA
:1055200041038F70873008F00BC18093E9008091B0
:10553000EB0085FB882780F91092E9009091E80044
:10554000977F9093E8008093F1001092F100D1C012
:10555000282F2D7F09F0F4C0882319F0823061F0E4
:10556000EFC080913F03813009F0EAC0933009F029
:1055700080E080933A032EC080913F0381112AC0BE
:10558000809141038F702FEF280F263008F0D8C08C
:105590008093E9002091EB0020FF1CC0933021F4A0
:1055A0008091EB00806214C09091EB009061909329
:1055B000EB0021E030E0A90102C0440F551F8A959D
:1055C000E2F74093EA001092EA008091EB008860D5
:1055D0008093EB001092E9008091E800877F809330
:1055E000E8000E947528ACC08111AAC010913F0349
:1055F0001F778091E3008078812B8093E300809176
:10560000E800877F8093E8000E9475288091E80079
:1056100080FFFCCF8091E30080688093E30011114C
:1056200002C082E001C083E080933C0389C08058BF
:10563000823008F085C080913F03909140038C3DFB
:1056400053E0950779F583E08A838AE289834FB72F
:10565000F894DE01139620E03EE051E2E32FF0E003
:1056600050935700E49120FF03C0E295EF703F5F35
:10567000EF708E2F90E0EA3010F0C79601C0C09610
:105680008D939D932F5F243149F74FBF8091E800A0
:10569000877F8093E8006AE270E0CE0101960E9465
:1056A000812716C06091410370914203AE014F5FA4
:1056B0005F4F0E94B026BC01892B09F441C0909134
:1056C000E800977F9093E80089819A810E94DF2704
:1056D0008091E8008B778093E80032C0803881F5B4
:1056E0008091E800877F8093E80080913803809361
:1056F000F1008091E8008E7772CF811121C08091F6
:105700003F039091400399270297D4F48091E800D9
:10571000877F8093E80080913F03809338030E9445
:10572000752880913803811106C08091E30087FDC0
:1057300002C081E001C084E080933C030E94AA255E
:105740008091E80083FF0AC08091E800877F809302
:10575000E8008091EB0080628093EB00AA960FB680
:10576000F894DEBF0FBECDBFDF91CF911F9108959A
:105770000895CF9380913C038823A1F0C091E90064
:10578000CF709091EC00892F817090FD80E8C82B3C
:105790001092E9008091E80083FD0E94582ACF70A2
:1057A000C093E900CF910895DB018F939F930E94EE
:1057B0005D2CBF91AF91A29F800D911DA39F900D75
:1057C000B29F900D11240895991B79E004C0991F90
:1057D000961708F0961B881F7A95C9F7809508954B
:1057E00087FB082E062687FD819567FD61950E943F
:1057F000E42B0EF4919507FC81950895AA1BBB1B21
:1058000051E107C0AA1FBB1FA617B70710F0A61BC0
:10581000B70B881F991F5A95A9F780959095BC01E1
:10582000CD01089597FB072E16F4009407D077FD5D
:1058300009D00E94FE2B07FC05D03EF4909581957F
:105840009F4F0895709561957F4F0895A1E21A2E9C
:10585000AA1BBB1BFD010DC0AA1FBB1FEE1FFF1F14
:10586000A217B307E407F50720F0A21BB30BE40B64
:10587000F50B661F771F881F991F1A9469F76095AB
:105880007095809590959B01AC01BD01CF01089565
:10589000EE0FFF1F0590F491E02D0994A29FB00137
:1058A000B39FC001A39F700D811D1124911DB29F54
:1058B000700D811D1124911D08950E944E2CA59FED
:1058C000900DB49F900DA49F800D911D11240895FB
:1058D0008F929F92AF92BF92CF92DF92EF92FF9200
:1058E000CF93DF93EC01688179818A819B81611577
:1058F00071058105910521F464E279ED8BE597E06E
:105900002DE133EF41E050E00E94192D49015A0189
:105910009B01AC01A7EAB1E40E945D2C6B017C0104
:10592000ACEEB4EFA50194010E943B2DDC01CB014C
:105930008C0D9D1DAE1DBF1DB7FF03C00197A109B2
:10594000B04888839983AA83BB839F77DF91CF91E7
:10595000FF90EF90DF90CF90BF90AF909F908F908F
:1059600008950E94682C089580E091E00E94682CC0
:105970000895A0E0B0E08093000190930101A0930E
:105980000201B09303010895FC014150504030F0F2
:1059900001900616D1F73197CF01089588279927EE
:1059A0000895F999FECF92BD81BDF89A992780B5E7
:1059B0000895A6E1B0E044E050E00C940B2DA8E17E
:1059C000B0E042E050E00C940B2D262FF999FECF69
:1059D00092BD81BDF89A019700B4021639F01FBA42
:1059E00020BD0FB6F894FA9AF99A0FBE089503965F
:1059F000272F0E94E62C0E94E52C252F0E94E62CE2
:105A0000242F0C94E62C0196272F0E94E62C0C9450
:105A1000E52CDC01CB01FC01F999FECF06C0F2BDFB
:105A2000E1BDF89A319600B40D9241505040B8F75C
:105A30000895052E97FB1EF400940E94302D57FD0B
:105A400007D00E94262C07FC03D04EF40C94302D76
:105A500050954095309521953F4F4F4F5F4F08959A
:105A600090958095709561957F4F8F4F9F4F0895CA
:105A7000B7FF0C945D2C0E945D2C821B930B089544
:045A8000F894FFCFC8
:105A8400010000000102000C000C0C01191A1B1C7F
:105A94001D1E1F2021229C022808641E140A321E87
:105AA400D7244E2523251F250D2501E200E900EA10
:105AB40000B500B600B700CD008301CC008A019286
:105AC4000194012102230224022502260227022A2C
:105AD40002B300B4006F007000818283F0F1C667E6
